{"abi":[{"type":"constructor","inputs":[{"name":"tokenAddresses","type":"address[]","internalType":"address[]"},{"name":"priceFeedAddresses","type":"address[]","internalType":"address[]"},{"name":"dscAddress","type":"address","internalType":"address"}],"stateMutability":"nonpayable"},{"type":"function","name":"burnDsc","inputs":[{"name":"amountDscToBurn","type":"uint256","internalType":"uint256"}],"outputs":[],"stateMutability":"nonpayable"},{"type":"function","name":"calculateHealthFactor","inputs":[{"name":"totalDscMinted","type":"uint256","internalType":"uint256"},{"name":"collateralValueInUsd","type":"uint256","internalType":"uint256"}],"outputs":[{"name":"","type":"uint256","internalType":"uint256"}],"stateMutability":"pure"},{"type":"function","name":"depositCollateral","inputs":[{"name":"tokenCollateralAddress","type":"address","internalType":"address"},{"name":"amountCollateral","type":"uint256","internalType":"uint256"}],"outputs":[],"stateMutability":"nonpayable"},{"type":"function","name":"depositCollateralAndMint","inputs":[{"name":"tokenCollateralAddress","type":"address","internalType":"address"},{"name":"amountCollateral","type":"uint256","internalType":"uint256"},{"name":"amountDscToMint","type":"uint256","internalType":"uint256"}],"outputs":[],"stateMutability":"nonpayable"},{"type":"function","name":"getAccountCollateralValueInUsd","inputs":[{"name":"user","type":"address","internalType":"address"}],"outputs":[{"name":"totalCollateralValueInUsd","type":"uint256","internalType":"uint256"}],"stateMutability":"view"},{"type":"function","name":"getAccountInformation","inputs":[{"name":"user","type":"address","internalType":"address"}],"outputs":[{"name":"totalDscMinted","type":"uint256","internalType":"uint256"},{"name":"collateralValueInUsd","type":"uint256","internalType":"uint256"}],"stateMutability":"view"},{"type":"function","name":"getCollateralDeposited","inputs":[{"name":"user","type":"address","internalType":"address"},{"name":"token","type":"address","internalType":"address"}],"outputs":[{"name":"","type":"uint256","internalType":"uint256"}],"stateMutability":"view"},{"type":"function","name":"getCollateralTokens","inputs":[],"outputs":[{"name":"","type":"address[]","internalType":"address[]"}],"stateMutability":"view"},{"type":"function","name":"getTokenAmountFromUsd","inputs":[{"name":"token","type":"address","internalType":"address"},{"name":"usdAmountInWei","type":"uint256","internalType":"uint256"}],"outputs":[{"name":"","type":"uint256","internalType":"uint256"}],"stateMutability":"view"},{"type":"function","name":"getUsdValue","inputs":[{"name":"token","type":"address","internalType":"address"},{"name":"amount","type":"uint256","internalType":"uint256"}],"outputs":[{"name":"","type":"uint256","internalType":"uint256"}],"stateMutability":"view"},{"type":"function","name":"getUserHealthFactor","inputs":[{"name":"user","type":"address","internalType":"address"}],"outputs":[{"name":"","type":"uint256","internalType":"uint256"}],"stateMutability":"view"},{"type":"function","name":"i_dsc","inputs":[],"outputs":[{"name":"","type":"address","internalType":"contract DecentralizedStablecoin"}],"stateMutability":"view"},{"type":"function","name":"liquidate","inputs":[{"name":"tokenCollateralAddress","type":"address","internalType":"address"},{"name":"user","type":"address","internalType":"address"},{"name":"debtToCover","type":"uint256","internalType":"uint256"}],"outputs":[],"stateMutability":"nonpayable"},{"type":"function","name":"mintDsc","inputs":[{"name":"amountDcsToMint","type":"uint256","internalType":"uint256"}],"outputs":[],"stateMutability":"nonpayable"},{"type":"function","name":"redeemCollateral","inputs":[{"name":"tokenCollateralAddress","type":"address","internalType":"address"},{"name":"amountCollateral","type":"uint256","internalType":"uint256"}],"outputs":[],"stateMutability":"nonpayable"},{"type":"function","name":"redeemCollateralForDsc","inputs":[{"name":"tokenCollateralAddress","type":"address","internalType":"address"},{"name":"amountCollateral","type":"uint256","internalType":"uint256"},{"name":"amountDscToBurn","type":"uint256","internalType":"uint256"}],"outputs":[],"stateMutability":"nonpayable"},{"type":"event","name":"CollateralRedeemed","inputs":[{"name":"redeemedFrom","type":"address","indexed":true,"internalType":"address"},{"name":"redeemedTo","type":"address","indexed":true,"internalType":"address"},{"name":"amountCollateral","type":"uint256","indexed":true,"internalType":"uint256"},{"name":"tokenCollateralAddress","type":"address","indexed":false,"internalType":"address"}],"anonymous":false},{"type":"event","name":"CollaterallDeposited","inputs":[{"name":"user","type":"address","indexed":true,"internalType":"address"},{"name":"tokenCollateralAddress","type":"address","indexed":true,"internalType":"address"},{"name":"amountCollateral","type":"uint256","indexed":true,"internalType":"uint256"}],"anonymous":false},{"type":"event","name":"DscBurned","inputs":[{"name":"user","type":"address","indexed":true,"internalType":"address"},{"name":"amountDscBurned","type":"uint256","indexed":true,"internalType":"uint256"}],"anonymous":false},{"type":"event","name":"DscMinted","inputs":[{"name":"user","type":"address","indexed":true,"internalType":"address"},{"name":"amountDscMinted","type":"uint256","indexed":true,"internalType":"uint256"}],"anonymous":false},{"type":"error","name":"DSCEngine_BreaksHealthFactor","inputs":[]},{"type":"error","name":"DSCEngine_CollateralValueOverflow","inputs":[]},{"type":"error","name":"DSCEngine_HealthFactorNotImproved","inputs":[]},{"type":"error","name":"DSCEngine_InsufficientCollateralBalance","inputs":[]},{"type":"error","name":"DSCEngine_MintFailed","inputs":[]},{"type":"error","name":"DSCEngine_MustBeMoreThanZero","inputs":[]},{"type":"error","name":"DSCEngine_NotZeroAddress","inputs":[]},{"type":"error","name":"DSCEngine_RedeemValueGreaterThanCollateral","inputs":[]},{"type":"error","name":"DSCEngine_TokenAddressesAndPriceFeedAddressesMustBeTheSameLength","inputs":[]},{"type":"error","name":"DSCEngine_TokenIsNotAllowed","inputs":[]},{"type":"error","name":"DSCEngine_TransferFailed","inputs":[]},{"type":"error","name":"DSCEngine_UserHealthFactorIsNotBroken","inputs":[]},{"type":"error","name":"DecentralizedStablecoin_AmountExceedsBalance","inputs":[]},{"type":"error","name":"DecentralizedStablecoin_MustBeMoreThanZero","inputs":[]},{"type":"error","name":"DecentralizedStablecoin_NotZeroAddress","inputs":[]},{"type":"error","name":"ReentrancyGuardReentrantCall","inputs":[]}],"bytecode":{"object":"0x60a060405234801561000f575f5ffd5b50604051612349380380612349833981810160405281019061003191906103af565b60015f819055508151835114610073576040517f2eca782d00000000000000000000000000000000000000000000000000000000815260040160405180910390fd5b5f5f90505b83518110156101b75782818151811061009457610093610437565b5b602002602001015160015f8684815181106100b2576100b1610437565b5b602002602001015173ffffffffffffffffffffffffffffffffffffffff1673ffffffffffffffffffffffffffffffffffffffff1681526020019081526020015f205f6101000a81548173ffffffffffffffffffffffffffffffffffffffff021916908373ffffffffffffffffffffffffffffffffffffffff160217905550600484828151811061014557610144610437565b5b6020026020010151908060018154018082558091505060019003905f5260205f20015f9091909190916101000a81548173ffffffffffffffffffffffffffffffffffffffff021916908373ffffffffffffffffffffffffffffffffffffffff1602179055508080600101915050610078565b508073ffffffffffffffffffffffffffffffffffffffff1660808173ffffffffffffffffffffffffffffffffffffffff1681525050505050610464565b5f604051905090565b5f5ffd5b5f5ffd5b5f5ffd5b5f601f19601f8301169050919050565b7f4e487b71000000000000000000000000000000000000000000000000000000005f52604160045260245ffd5b61024f82610209565b810181811067ffffffffffffffff8211171561026e5761026d610219565b5b80604052505050565b5f6102806101f4565b905061028c8282610246565b919050565b5f67ffffffffffffffff8211156102ab576102aa610219565b5b602082029050602081019050919050565b5f5ffd5b5f73ffffffffffffffffffffffffffffffffffffffff82169050919050565b5f6102e9826102c0565b9050919050565b6102f9816102df565b8114610303575f5ffd5b50565b5f81519050610314816102f0565b92915050565b5f61032c61032784610291565b610277565b9050808382526020820190506020840283018581111561034f5761034e6102bc565b5b835b8181101561037857806103648882610306565b845260208401935050602081019050610351565b5050509392505050565b5f82601f83011261039657610395610205565b5b81516103a684826020860161031a565b91505092915050565b5f5f5f606084860312156103c6576103c56101fd565b5b5f84015167ffffffffffffffff8111156103e3576103e2610201565b5b6103ef86828701610382565b935050602084015167ffffffffffffffff8111156104105761040f610201565b5b61041c86828701610382565b925050604061042d86828701610306565b9150509250925092565b7f4e487b71000000000000000000000000000000000000000000000000000000005f52603260045260245ffd5b608051611eb86104915f395f818161077501528181610e3a01528181610fbc01526114850152611eb85ff3fe608060405234801561000f575f5ffd5b50600436106100fe575f3560e01c80639acd81b311610095578063c660d11211610064578063c660d112146102cf578063c9b7c327146102ff578063f419ea9c1461031b578063f687660814610337576100fe565b80639acd81b314610249578063a5d5db0c14610265578063afea2e4814610281578063b58eb63f146102b1576100fe565b80635e338bb3116100d15780635e338bb3146101ae57806371cbfc98146101cc5780637ba3ca5c146101fc5780637be564fc14610218576100fe565b806301f728841461010257806326c01303146101325780634b9085af1461014e578063545af4fe1461017e575b5f5ffd5b61011c6004803603810190610117919061179f565b610353565b60405161012991906117ec565b60405180910390f35b61014c6004803603810190610147919061185f565b610366565b005b610168600480360381019061016391906118af565b6105ad565b60405161017591906117ec565b60405180910390f35b610198600480360381019061019391906118ed565b61062f565b6040516101a591906117ec565b60405180910390f35b6101b6610773565b6040516101c39190611973565b60405180910390f35b6101e660048036038101906101e191906118ed565b610797565b6040516101f391906117ec565b60405180910390f35b6102166004803603810190610211919061198c565b6107a8565b005b610232600480360381019061022d91906118ed565b6107c0565b6040516102409291906119dc565b60405180910390f35b610263600480360381019061025e9190611a03565b6107d8565b005b61027f600480360381019061027a9190611a03565b61083e565b005b61029b60048036038101906102969190611a03565b610af1565b6040516102a891906117ec565b60405180910390f35b6102b9610bff565b6040516102c69190611af8565b60405180910390f35b6102e960048036038101906102e49190611a03565b610c8a565b6040516102f691906117ec565b60405180910390f35b61031960048036038101906103149190611b18565b610d98565b005b6103356004803603810190610330919061198c565b610f5d565b005b610351600480360381019061034c9190611b18565b610f75565b005b5f61035e8383611088565b905092915050565b805f81036103a0576040517fb2e8123e00000000000000000000000000000000000000000000000000000000815260040160405180910390fd5b6103a86110fd565b5f6103b284611141565b9050670de0b6b3a764000081106103f5576040517fccb0fee500000000000000000000000000000000000000000000000000000000815260040160405180910390fd5b5f6104008685610af1565b90505f6064600a836104129190611b70565b61041c9190611bde565b90505f818361042b9190611c0e565b905060025f8873ffffffffffffffffffffffffffffffffffffffff1673ffffffffffffffffffffffffffffffffffffffff1681526020019081526020015f205f8973ffffffffffffffffffffffffffffffffffffffff1673ffffffffffffffffffffffffffffffffffffffff1681526020019081526020015f20548111156105295760025f8873ffffffffffffffffffffffffffffffffffffffff1673ffffffffffffffffffffffffffffffffffffffff1681526020019081526020015f205f8973ffffffffffffffffffffffffffffffffffffffff1673ffffffffffffffffffffffffffffffffffffffff1681526020019081526020015f205490505b610535888289336111c8565b61054086883361142f565b5f61054a88611141565b90508481111580156105635750670de0b6b3a764000085105b1561059a576040517f6d44d06500000000000000000000000000000000000000000000000000000000815260040160405180910390fd5b50505050506105a761155f565b50505050565b5f60025f8473ffffffffffffffffffffffffffffffffffffffff1673ffffffffffffffffffffffffffffffffffffffff1681526020019081526020015f205f8373ffffffffffffffffffffffffffffffffffffffff1673ffffffffffffffffffffffffffffffffffffffff1681526020019081526020015f2054905092915050565b5f5f5f90505b60048054905081101561076d575f6004828154811061065757610656611c41565b5b905f5260205f20015f9054906101000a900473ffffffffffffffffffffffffffffffffffffffff1690505f60025f8673ffffffffffffffffffffffffffffffffffffffff1673ffffffffffffffffffffffffffffffffffffffff1681526020019081526020015f205f8373ffffffffffffffffffffffffffffffffffffffff1673ffffffffffffffffffffffffffffffffffffffff1681526020019081526020015f205490505f6107088383610c8a565b90508481866107179190611c0e565b101561074f576040517f1bf5d35a00000000000000000000000000000000000000000000000000000000815260040160405180910390fd5b808561075b9190611c0e565b94505050508080600101915050610635565b50919050565b7f000000000000000000000000000000000000000000000000000000000000000081565b5f6107a182611141565b9050919050565b6107b2838361083e565b6107bb81610d98565b505050565b5f5f6107cb83611568565b8092508193505050915091565b805f8103610812576040517fb2e8123e00000000000000000000000000000000000000000000000000000000815260040160405180910390fd5b61081a6110fd565b6108253384846115ba565b610831838333336111c8565b61083961155f565b505050565b805f8103610878576040517fb2e8123e00000000000000000000000000000000000000000000000000000000815260040160405180910390fd5b825f73ffffffffffffffffffffffffffffffffffffffff1660015f8373ffffffffffffffffffffffffffffffffffffffff1673ffffffffffffffffffffffffffffffffffffffff1681526020019081526020015f205f9054906101000a900473ffffffffffffffffffffffffffffffffffffffff1673ffffffffffffffffffffffffffffffffffffffff160361093a576040517f7425fef400000000000000000000000000000000000000000000000000000000815260040160405180910390fd5b6109426110fd565b8260025f3373ffffffffffffffffffffffffffffffffffffffff1673ffffffffffffffffffffffffffffffffffffffff1681526020019081526020015f205f8673ffffffffffffffffffffffffffffffffffffffff1673ffffffffffffffffffffffffffffffffffffffff1681526020019081526020015f205f8282546109c99190611c0e565b92505081905550828473ffffffffffffffffffffffffffffffffffffffff163373ffffffffffffffffffffffffffffffffffffffff167f93ad675cac5b11251fded71864b27637a55ab8152d5666787d15a082fd78507e60405160405180910390a45f8473ffffffffffffffffffffffffffffffffffffffff166323b872dd3330876040518463ffffffff1660e01b8152600401610a6993929190611c7d565b6020604051808303815f875af1158015610a85573d5f5f3e3d5ffd5b505050506040513d601f19601f82011682018060405250810190610aa99190611ce7565b905080610ae2576040517fcb6225d700000000000000000000000000000000000000000000000000000000815260040160405180910390fd5b50610aeb61155f565b50505050565b5f5f60015f8573ffffffffffffffffffffffffffffffffffffffff1673ffffffffffffffffffffffffffffffffffffffff1681526020019081526020015f205f9054906101000a900473ffffffffffffffffffffffffffffffffffffffff1690505f8173ffffffffffffffffffffffffffffffffffffffff1663feaf968c6040518163ffffffff1660e01b815260040160a060405180830381865afa158015610b9c573d5f5f3e3d5ffd5b505050506040513d601f19601f82011682018060405250810190610bc09190611d98565b5050509150506402540be40081610bd79190611b70565b670de0b6b3a764000085610beb9190611b70565b610bf59190611bde565b9250505092915050565b60606004805480602002602001604051908101604052809291908181526020018280548015610c8057602002820191905f5260205f20905b815f9054906101000a900473ffffffffffffffffffffffffffffffffffffffff1673ffffffffffffffffffffffffffffffffffffffff1681526020019060010190808311610c37575b5050505050905090565b5f5f60015f8573ffffffffffffffffffffffffffffffffffffffff1673ffffffffffffffffffffffffffffffffffffffff1681526020019081526020015f205f9054906101000a900473ffffffffffffffffffffffffffffffffffffffff1690505f8173ffffffffffffffffffffffffffffffffffffffff1663feaf968c6040518163ffffffff1660e01b815260040160a060405180830381865afa158015610d35573d5f5f3e3d5ffd5b505050506040513d601f19601f82011682018060405250810190610d599190611d98565b505050915050670de0b6b3a7640000846402540be40083610d7a9190611b70565b610d849190611b70565b610d8e9190611bde565b9250505092915050565b805f8103610dd2576040517fb2e8123e00000000000000000000000000000000000000000000000000000000815260040160405180910390fd5b610dda6110fd565b610de43383611610565b8160035f3373ffffffffffffffffffffffffffffffffffffffff1673ffffffffffffffffffffffffffffffffffffffff1681526020019081526020015f205f828254610e309190611c0e565b925050819055505f7f000000000000000000000000000000000000000000000000000000000000000073ffffffffffffffffffffffffffffffffffffffff166340c10f1933856040518363ffffffff1660e01b8152600401610e93929190611e0f565b6020604051808303815f875af1158015610eaf573d5f5f3e3d5ffd5b505050506040513d601f19601f82011682018060405250810190610ed39190611ce7565b905080610f0c576040517fd2c38ade00000000000000000000000000000000000000000000000000000000815260040160405180910390fd5b823373ffffffffffffffffffffffffffffffffffffffff167f8db25d285cfee36b751645e359b467e6607747eb227c55242e25bf4030ebdb2e60405160405180910390a350610f5961155f565b5050565b610f6681610f75565b610f7083836107d8565b505050565b805f8103610faf576040517fb2e8123e00000000000000000000000000000000000000000000000000000000815260040160405180910390fd5b610fba82333361142f565b7f000000000000000000000000000000000000000000000000000000000000000073ffffffffffffffffffffffffffffffffffffffff166342966c68836040518263ffffffff1660e01b815260040161101391906117ec565b5f604051808303815f87803b15801561102a575f5ffd5b505af115801561103c573d5f5f3e3d5ffd5b50505050813373ffffffffffffffffffffffffffffffffffffffff167ff412005626bd5545446b80adbebf2936ed08f5c5796808db07c640a864a1419760405160405180910390a35050565b5f5f83036110b8577fffffffffffffffffffffffffffffffffffffffffffffffffffffffffffffffff90506110f7565b5f60646032846110c89190611b70565b6110d29190611bde565b905083670de0b6b3a7640000826110e99190611b70565b6110f39190611bde565b9150505b92915050565b60025f5403611138576040517f3ee5aeb500000000000000000000000000000000000000000000000000000000815260040160405180910390fd5b60025f81905550565b5f5f5f61114d84611568565b915091505f8203611182577fffffffffffffffffffffffffffffffffffffffffffffffffffffffffffffffff925050506111c3565b5f60646032836111929190611b70565b61119c9190611bde565b905082670de0b6b3a7640000826111b39190611b70565b6111bd9190611bde565b93505050505b919050565b5f60025f8473ffffffffffffffffffffffffffffffffffffffff1673ffffffffffffffffffffffffffffffffffffffff1681526020019081526020015f205f8673ffffffffffffffffffffffffffffffffffffffff1673ffffffffffffffffffffffffffffffffffffffff1681526020019081526020015f205490508381101561127e576040517faa24680700000000000000000000000000000000000000000000000000000000815260040160405180910390fd5b8360025f8573ffffffffffffffffffffffffffffffffffffffff1673ffffffffffffffffffffffffffffffffffffffff1681526020019081526020015f205f8773ffffffffffffffffffffffffffffffffffffffff1673ffffffffffffffffffffffffffffffffffffffff1681526020019081526020015f205f8282546113059190611e36565b92505081905550838273ffffffffffffffffffffffffffffffffffffffff168473ffffffffffffffffffffffffffffffffffffffff167fd4ba8465e2e2f858e9b9c6fda40ac8453f934b469d57c1f7564620cddd7443de8860405161136a9190611e69565b60405180910390a45f8573ffffffffffffffffffffffffffffffffffffffff1663a9059cbb84876040518363ffffffff1660e01b81526004016113ae929190611e0f565b6020604051808303815f875af11580156113ca573d5f5f3e3d5ffd5b505050506040513d601f19601f820116820180604052508101906113ee9190611ce7565b905080611427576040517fcb6225d700000000000000000000000000000000000000000000000000000000815260040160405180910390fd5b505050505050565b8260035f8473ffffffffffffffffffffffffffffffffffffffff1673ffffffffffffffffffffffffffffffffffffffff1681526020019081526020015f205f82825461147b9190611e36565b925050819055505f7f000000000000000000000000000000000000000000000000000000000000000073ffffffffffffffffffffffffffffffffffffffff166323b872dd8330876040518463ffffffff1660e01b81526004016114e093929190611c7d565b6020604051808303815f875af11580156114fc573d5f5f3e3d5ffd5b505050506040513d601f19601f820116820180604052508101906115209190611ce7565b905080611559576040517fcb6225d700000000000000000000000000000000000000000000000000000000815260040160405180910390fd5b50505050565b60015f81905550565b5f5f60035f8473ffffffffffffffffffffffffffffffffffffffff1673ffffffffffffffffffffffffffffffffffffffff1681526020019081526020015f205491506115b38361062f565b9050915091565b5f6115c684848461168c565b9050670de0b6b3a764000081101561160a576040517f0d1d46bb00000000000000000000000000000000000000000000000000000000815260040160405180910390fd5b50505050565b5f5f61161b84611568565b915091505f606460328361162f9190611b70565b6116399190611bde565b90505f83856116489190611c0e565b905081811115611684576040517f0d1d46bb00000000000000000000000000000000000000000000000000000000815260040160405180910390fd5b505050505050565b5f5f5f61169886611568565b915091505f82036116cd577fffffffffffffffffffffffffffffffffffffffffffffffffffffffffffffffff92505050611761565b5f6116d88686610c8a565b905080821015611714576040517fdaf0406b00000000000000000000000000000000000000000000000000000000815260040160405180910390fd5b5f6064603283856117259190611e36565b61172f9190611b70565b6117399190611bde565b905083670de0b6b3a7640000826117509190611b70565b61175a9190611bde565b9450505050505b9392505050565b5f5ffd5b5f819050919050565b61177e8161176c565b8114611788575f5ffd5b50565b5f8135905061179981611775565b92915050565b5f5f604083850312156117b5576117b4611768565b5b5f6117c28582860161178b565b92505060206117d38582860161178b565b9150509250929050565b6117e68161176c565b82525050565b5f6020820190506117ff5f8301846117dd565b92915050565b5f73ffffffffffffffffffffffffffffffffffffffff82169050919050565b5f61182e82611805565b9050919050565b61183e81611824565b8114611848575f5ffd5b50565b5f8135905061185981611835565b92915050565b5f5f5f6060848603121561187657611875611768565b5b5f6118838682870161184b565b93505060206118948682870161184b565b92505060406118a58682870161178b565b9150509250925092565b5f5f604083850312156118c5576118c4611768565b5b5f6118d28582860161184b565b92505060206118e38582860161184b565b9150509250929050565b5f6020828403121561190257611901611768565b5b5f61190f8482850161184b565b91505092915050565b5f819050919050565b5f61193b61193661193184611805565b611918565b611805565b9050919050565b5f61194c82611921565b9050919050565b5f61195d82611942565b9050919050565b61196d81611953565b82525050565b5f6020820190506119865f830184611964565b92915050565b5f5f5f606084860312156119a3576119a2611768565b5b5f6119b08682870161184b565b93505060206119c18682870161178b565b92505060406119d28682870161178b565b9150509250925092565b5f6040820190506119ef5f8301856117dd565b6119fc60208301846117dd565b9392505050565b5f5f60408385031215611a1957611a18611768565b5b5f611a268582860161184b565b9250506020611a378582860161178b565b9150509250929050565b5f81519050919050565b5f82825260208201905092915050565b5f819050602082019050919050565b611a7381611824565b82525050565b5f611a848383611a6a565b60208301905092915050565b5f602082019050919050565b5f611aa682611a41565b611ab08185611a4b565b9350611abb83611a5b565b805f5b83811015611aeb578151611ad28882611a79565b9750611add83611a90565b925050600181019050611abe565b5085935050505092915050565b5f6020820190508181035f830152611b108184611a9c565b905092915050565b5f60208284031215611b2d57611b2c611768565b5b5f611b3a8482850161178b565b91505092915050565b7f4e487b71000000000000000000000000000000000000000000000000000000005f52601160045260245ffd5b5f611b7a8261176c565b9150611b858361176c565b9250828202611b938161176c565b91508282048414831517611baa57611ba9611b43565b5b5092915050565b7f4e487b71000000000000000000000000000000000000000000000000000000005f52601260045260245ffd5b5f611be88261176c565b9150611bf38361176c565b925082611c0357611c02611bb1565b5b828204905092915050565b5f611c188261176c565b9150611c238361176c565b9250828201905080821115611c3b57611c3a611b43565b5b92915050565b7f4e487b71000000000000000000000000000000000000000000000000000000005f52603260045260245ffd5b611c7781611824565b82525050565b5f606082019050611c905f830186611c6e565b611c9d6020830185611c6e565b611caa60408301846117dd565b949350505050565b5f8115159050919050565b611cc681611cb2565b8114611cd0575f5ffd5b50565b5f81519050611ce181611cbd565b92915050565b5f60208284031215611cfc57611cfb611768565b5b5f611d0984828501611cd3565b91505092915050565b5f69ffffffffffffffffffff82169050919050565b611d3081611d12565b8114611d3a575f5ffd5b50565b5f81519050611d4b81611d27565b92915050565b5f819050919050565b611d6381611d51565b8114611d6d575f5ffd5b50565b5f81519050611d7e81611d5a565b92915050565b5f81519050611d9281611775565b92915050565b5f5f5f5f5f60a08688031215611db157611db0611768565b5b5f611dbe88828901611d3d565b9550506020611dcf88828901611d70565b9450506040611de088828901611d84565b9350506060611df188828901611d84565b9250506080611e0288828901611d3d565b9150509295509295909350565b5f604082019050611e225f830185611c6e565b611e2f60208301846117dd565b9392505050565b5f611e408261176c565b9150611e4b8361176c565b9250828203905081811115611e6357611e62611b43565b5b92915050565b5f602082019050611e7c5f830184611c6e565b9291505056fea2646970667358221220ef24d42b14c82e7e0ab9118b9a46e9075cbed7e5df79aafad6580aa7c0b356b964736f6c634300081c0033","linkReferences":{}},"methodIdentifiers":{"burnDsc(uint256)":"f6876608","calculateHealthFactor(uint256,uint256)":"01f72884","depositCollateral(address,uint256)":"a5d5db0c","depositCollateralAndMint(address,uint256,uint256)":"7ba3ca5c","getAccountCollateralValueInUsd(address)":"545af4fe","getAccountInformation(address)":"7be564fc","getCollateralDeposited(address,address)":"4b9085af","getCollateralTokens()":"b58eb63f","getTokenAmountFromUsd(address,uint256)":"afea2e48","getUsdValue(address,uint256)":"c660d112","getUserHealthFactor(address)":"71cbfc98","i_dsc()":"5e338bb3","liquidate(address,address,uint256)":"26c01303","mintDsc(uint256)":"c9b7c327","redeemCollateral(address,uint256)":"9acd81b3","redeemCollateralForDsc(address,uint256,uint256)":"f419ea9c"},"id":32}