{"abi":[{"type":"constructor","inputs":[{"name":"tokenAddresses","type":"address[]","internalType":"address[]"},{"name":"priceFeedAddresses","type":"address[]","internalType":"address[]"},{"name":"dscAddress","type":"address","internalType":"address"}],"stateMutability":"nonpayable"},{"type":"function","name":"burnDsc","inputs":[{"name":"amountDscToBurn","type":"uint256","internalType":"uint256"}],"outputs":[],"stateMutability":"nonpayable"},{"type":"function","name":"depositCollateral","inputs":[{"name":"tokenCollateralAddress","type":"address","internalType":"address"},{"name":"amountCollateral","type":"uint256","internalType":"uint256"}],"outputs":[],"stateMutability":"nonpayable"},{"type":"function","name":"depositCollateralAndMint","inputs":[{"name":"tokenCollateralAddress","type":"address","internalType":"address"},{"name":"amountCollateral","type":"uint256","internalType":"uint256"},{"name":"amountDscToMint","type":"uint256","internalType":"uint256"}],"outputs":[],"stateMutability":"nonpayable"},{"type":"function","name":"getAccountCollateralValueInUsd","inputs":[{"name":"user","type":"address","internalType":"address"}],"outputs":[{"name":"totalCollateralValueInUsd","type":"uint256","internalType":"uint256"}],"stateMutability":"view"},{"type":"function","name":"getAccountInformation","inputs":[{"name":"user","type":"address","internalType":"address"}],"outputs":[{"name":"totalDscMinted","type":"uint256","internalType":"uint256"},{"name":"collateralValueInUsd","type":"uint256","internalType":"uint256"}],"stateMutability":"view"},{"type":"function","name":"getTokenAmountFromUsd","inputs":[{"name":"token","type":"address","internalType":"address"},{"name":"usdAmountInWei","type":"uint256","internalType":"uint256"}],"outputs":[{"name":"","type":"uint256","internalType":"uint256"}],"stateMutability":"view"},{"type":"function","name":"getUsdValue","inputs":[{"name":"token","type":"address","internalType":"address"},{"name":"amount","type":"uint256","internalType":"uint256"}],"outputs":[{"name":"","type":"uint256","internalType":"uint256"}],"stateMutability":"view"},{"type":"function","name":"getUserHealthFactor","inputs":[{"name":"user","type":"address","internalType":"address"}],"outputs":[{"name":"","type":"uint256","internalType":"uint256"}],"stateMutability":"view"},{"type":"function","name":"i_dsc","inputs":[],"outputs":[{"name":"","type":"address","internalType":"contract DecentralizedStablecoin"}],"stateMutability":"view"},{"type":"function","name":"liquidate","inputs":[{"name":"tokenCollateralAddress","type":"address","internalType":"address"},{"name":"user","type":"address","internalType":"address"},{"name":"debtToCover","type":"uint256","internalType":"uint256"}],"outputs":[],"stateMutability":"nonpayable"},{"type":"function","name":"mintDsc","inputs":[{"name":"amountDcsToMint","type":"uint256","internalType":"uint256"}],"outputs":[],"stateMutability":"nonpayable"},{"type":"function","name":"redeemCollateral","inputs":[{"name":"tokenCollateralAddress","type":"address","internalType":"address"},{"name":"amountCollateral","type":"uint256","internalType":"uint256"}],"outputs":[],"stateMutability":"nonpayable"},{"type":"function","name":"redeemCollateralForDsc","inputs":[{"name":"tokenCollateralAddress","type":"address","internalType":"address"},{"name":"amountCollateral","type":"uint256","internalType":"uint256"},{"name":"amountDscToBurn","type":"uint256","internalType":"uint256"}],"outputs":[],"stateMutability":"nonpayable"},{"type":"event","name":"CollateralRedeemed","inputs":[{"name":"redeemedFrom","type":"address","indexed":true,"internalType":"address"},{"name":"redeemedTo","type":"address","indexed":true,"internalType":"address"},{"name":"amountCollateral","type":"uint256","indexed":true,"internalType":"uint256"},{"name":"tokenCollateralAddress","type":"address","indexed":false,"internalType":"address"}],"anonymous":false},{"type":"event","name":"CollaterallDeposited","inputs":[{"name":"user","type":"address","indexed":true,"internalType":"address"},{"name":"tokenCollateralAddress","type":"address","indexed":true,"internalType":"address"},{"name":"amountCollateral","type":"uint256","indexed":true,"internalType":"uint256"}],"anonymous":false},{"type":"event","name":"DscBurned","inputs":[{"name":"user","type":"address","indexed":true,"internalType":"address"},{"name":"amountDscBurned","type":"uint256","indexed":true,"internalType":"uint256"}],"anonymous":false},{"type":"event","name":"DscMinted","inputs":[{"name":"user","type":"address","indexed":true,"internalType":"address"},{"name":"amountDscMinted","type":"uint256","indexed":true,"internalType":"uint256"}],"anonymous":false},{"type":"error","name":"DSCEngine_BreaksHealthFactor","inputs":[]},{"type":"error","name":"DSCEngine_HealthFactorNotImproved","inputs":[]},{"type":"error","name":"DSCEngine_MintFailed","inputs":[]},{"type":"error","name":"DSCEngine_MustBeMoreThanZero","inputs":[]},{"type":"error","name":"DSCEngine_NotZeroAddress","inputs":[]},{"type":"error","name":"DSCEngine_TokenAddressesAndPriceFeedAddressesMustBeTheSameLength","inputs":[]},{"type":"error","name":"DSCEngine_TokenIsNotAllowed","inputs":[]},{"type":"error","name":"DSCEngine_TransferFailed","inputs":[]},{"type":"error","name":"DSCEngine_UserHealthFactorIsNotBroken","inputs":[]},{"type":"error","name":"DecentralizedStablecoin_AmountExceedsBalance","inputs":[]},{"type":"error","name":"DecentralizedStablecoin_MustBeMoreThanZero","inputs":[]},{"type":"error","name":"DecentralizedStablecoin_NotZeroAddress","inputs":[]},{"type":"error","name":"ReentrancyGuardReentrantCall","inputs":[]}],"bytecode":{"object":"0x60a060405234801561000f575f5ffd5b50604051611dd4380380611dd4833981810160405281019061003191906103af565b60015f819055508151835114610073576040517f2eca782d00000000000000000000000000000000000000000000000000000000815260040160405180910390fd5b5f5f90505b83518110156101b75782818151811061009457610093610437565b5b602002602001015160015f8684815181106100b2576100b1610437565b5b602002602001015173ffffffffffffffffffffffffffffffffffffffff1673ffffffffffffffffffffffffffffffffffffffff1681526020019081526020015f205f6101000a81548173ffffffffffffffffffffffffffffffffffffffff021916908373ffffffffffffffffffffffffffffffffffffffff160217905550600484828151811061014557610144610437565b5b6020026020010151908060018154018082558091505060019003905f5260205f20015f9091909190916101000a81548173ffffffffffffffffffffffffffffffffffffffff021916908373ffffffffffffffffffffffffffffffffffffffff1602179055508080600101915050610078565b508073ffffffffffffffffffffffffffffffffffffffff1660808173ffffffffffffffffffffffffffffffffffffffff1681525050505050610464565b5f604051905090565b5f5ffd5b5f5ffd5b5f5ffd5b5f601f19601f8301169050919050565b7f4e487b71000000000000000000000000000000000000000000000000000000005f52604160045260245ffd5b61024f82610209565b810181811067ffffffffffffffff8211171561026e5761026d610219565b5b80604052505050565b5f6102806101f4565b905061028c8282610246565b919050565b5f67ffffffffffffffff8211156102ab576102aa610219565b5b602082029050602081019050919050565b5f5ffd5b5f73ffffffffffffffffffffffffffffffffffffffff82169050919050565b5f6102e9826102c0565b9050919050565b6102f9816102df565b8114610303575f5ffd5b50565b5f81519050610314816102f0565b92915050565b5f61032c61032784610291565b610277565b9050808382526020820190506020840283018581111561034f5761034e6102bc565b5b835b8181101561037857806103648882610306565b845260208401935050602081019050610351565b5050509392505050565b5f82601f83011261039657610395610205565b5b81516103a684826020860161031a565b91505092915050565b5f5f5f606084860312156103c6576103c56101fd565b5b5f84015167ffffffffffffffff8111156103e3576103e2610201565b5b6103ef86828701610382565b935050602084015167ffffffffffffffff8111156104105761040f610201565b5b61041c86828701610382565b925050604061042d86828701610306565b9150509250925092565b7f4e487b71000000000000000000000000000000000000000000000000000000005f52603260045260245ffd5b6080516119436104915f395f81816104df01528181610ad601528181610c4f0152610fec01526119435ff3fe608060405234801561000f575f5ffd5b50600436106100cd575f3560e01c80639acd81b31161008a578063c660d11211610064578063c660d11214610220578063c9b7c32714610250578063f419ea9c1461026c578063f687660814610288576100cd565b80639acd81b3146101b8578063a5d5db0c146101d4578063afea2e48146101f0576100cd565b806326c01303146100d1578063545af4fe146100ed5780635e338bb31461011d57806371cbfc981461013b5780637ba3ca5c1461016b5780637be564fc14610187575b5f5ffd5b6100eb60048036038101906100e691906113d7565b6102a4565b005b61010760048036038101906101029190611427565b6103e3565b6040516101149190611461565b60405180910390f35b6101256104dd565b60405161013291906114d5565b60405180910390f35b61015560048036038101906101509190611427565b610501565b6040516101629190611461565b60405180910390f35b610185600480360381019061018091906114ee565b610512565b005b6101a1600480360381019061019c9190611427565b61052a565b6040516101af92919061153e565b60405180910390f35b6101d260048036038101906101cd9190611565565b610542565b005b6101ee60048036038101906101e99190611565565b6105a7565b005b61020a60048036038101906102059190611565565b61085a565b6040516102179190611461565b60405180910390f35b61023a60048036038101906102359190611565565b610968565b6040516102479190611461565b60405180910390f35b61026a600480360381019061026591906115a3565b610a76565b005b610286600480360381019061028191906114ee565b610bf0565b005b6102a2600480360381019061029d91906115a3565b610c08565b005b805f81036102de576040517fb2e8123e00000000000000000000000000000000000000000000000000000000815260040160405180910390fd5b6102e6610d1b565b5f6102f084610d5f565b9050670de0b6b3a76400008110610333576040517fccb0fee500000000000000000000000000000000000000000000000000000000815260040160405180910390fd5b5f61033e868561085a565b90505f6064600a8361035091906115fb565b61035a9190611669565b90505f81836103699190611699565b905061037788828933610de6565b610382868833610f96565b5f61038c88610d5f565b90508481106103c7576040517f6d44d06500000000000000000000000000000000000000000000000000000000815260040160405180910390fd5b6103d0886110c6565b50505050506103dd611118565b50505050565b5f5f5f90505b6004805490508110156104d7575f6004828154811061040b5761040a6116cc565b5b905f5260205f20015f9054906101000a900473ffffffffffffffffffffffffffffffffffffffff1690505f60025f8673ffffffffffffffffffffffffffffffffffffffff1673ffffffffffffffffffffffffffffffffffffffff1681526020019081526020015f205f8373ffffffffffffffffffffffffffffffffffffffff1673ffffffffffffffffffffffffffffffffffffffff1681526020019081526020015f205490506104bb8282610968565b846104c69190611699565b9350505080806001019150506103e9565b50919050565b7f000000000000000000000000000000000000000000000000000000000000000081565b5f61050b82610d5f565b9050919050565b61051c83836105a7565b61052581610a76565b505050565b5f5f61053583611121565b8092508193505050915091565b805f810361057c576040517fb2e8123e00000000000000000000000000000000000000000000000000000000815260040160405180910390fd5b610584610d1b565b61058e3383611173565b61059a83833333610de6565b6105a2611118565b505050565b805f81036105e1576040517fb2e8123e00000000000000000000000000000000000000000000000000000000815260040160405180910390fd5b825f73ffffffffffffffffffffffffffffffffffffffff1660015f8373ffffffffffffffffffffffffffffffffffffffff1673ffffffffffffffffffffffffffffffffffffffff1681526020019081526020015f205f9054906101000a900473ffffffffffffffffffffffffffffffffffffffff1673ffffffffffffffffffffffffffffffffffffffff16036106a3576040517f7425fef400000000000000000000000000000000000000000000000000000000815260040160405180910390fd5b6106ab610d1b565b8260025f3373ffffffffffffffffffffffffffffffffffffffff1673ffffffffffffffffffffffffffffffffffffffff1681526020019081526020015f205f8673ffffffffffffffffffffffffffffffffffffffff1673ffffffffffffffffffffffffffffffffffffffff1681526020019081526020015f205f8282546107329190611699565b92505081905550828473ffffffffffffffffffffffffffffffffffffffff163373ffffffffffffffffffffffffffffffffffffffff167f93ad675cac5b11251fded71864b27637a55ab8152d5666787d15a082fd78507e60405160405180910390a45f8473ffffffffffffffffffffffffffffffffffffffff166323b872dd3330876040518463ffffffff1660e01b81526004016107d293929190611708565b6020604051808303815f875af11580156107ee573d5f5f3e3d5ffd5b505050506040513d601f19601f820116820180604052508101906108129190611772565b90508061084b576040517fcb6225d700000000000000000000000000000000000000000000000000000000815260040160405180910390fd5b50610854611118565b50505050565b5f5f60015f8573ffffffffffffffffffffffffffffffffffffffff1673ffffffffffffffffffffffffffffffffffffffff1681526020019081526020015f205f9054906101000a900473ffffffffffffffffffffffffffffffffffffffff1690505f8173ffffffffffffffffffffffffffffffffffffffff1663feaf968c6040518163ffffffff1660e01b815260040160a060405180830381865afa158015610905573d5f5f3e3d5ffd5b505050506040513d601f19601f820116820180604052508101906109299190611823565b5050509150506402540be4008161094091906115fb565b670de0b6b3a76400008561095491906115fb565b61095e9190611669565b9250505092915050565b5f5f60015f8573ffffffffffffffffffffffffffffffffffffffff1673ffffffffffffffffffffffffffffffffffffffff1681526020019081526020015f205f9054906101000a900473ffffffffffffffffffffffffffffffffffffffff1690505f8173ffffffffffffffffffffffffffffffffffffffff1663feaf968c6040518163ffffffff1660e01b815260040160a060405180830381865afa158015610a13573d5f5f3e3d5ffd5b505050506040513d601f19601f82011682018060405250810190610a379190611823565b505050915050670de0b6b3a7640000846402540be40083610a5891906115fb565b610a6291906115fb565b610a6c9190611669565b9250505092915050565b8060035f3373ffffffffffffffffffffffffffffffffffffffff1673ffffffffffffffffffffffffffffffffffffffff1681526020019081526020015f205f828254610ac29190611699565b92505081905550610ad333826111c7565b5f7f000000000000000000000000000000000000000000000000000000000000000073ffffffffffffffffffffffffffffffffffffffff166340c10f1933846040518363ffffffff1660e01b8152600401610b2f92919061189a565b6020604051808303815f875af1158015610b4b573d5f5f3e3d5ffd5b505050506040513d601f19601f82011682018060405250810190610b6f9190611772565b905080610ba8576040517fd2c38ade00000000000000000000000000000000000000000000000000000000815260040160405180910390fd5b813373ffffffffffffffffffffffffffffffffffffffff167f8db25d285cfee36b751645e359b467e6607747eb227c55242e25bf4030ebdb2e60405160405180910390a35050565b610bf981610c08565b610c038383610542565b505050565b805f8103610c42576040517fb2e8123e00000000000000000000000000000000000000000000000000000000815260040160405180910390fd5b610c4d823333610f96565b7f000000000000000000000000000000000000000000000000000000000000000073ffffffffffffffffffffffffffffffffffffffff166342966c68836040518263ffffffff1660e01b8152600401610ca69190611461565b5f604051808303815f87803b158015610cbd575f5ffd5b505af1158015610ccf573d5f5f3e3d5ffd5b50505050813373ffffffffffffffffffffffffffffffffffffffff167ff412005626bd5545446b80adbebf2936ed08f5c5796808db07c640a864a1419760405160405180910390a35050565b60025f5403610d56576040517f3ee5aeb500000000000000000000000000000000000000000000000000000000815260040160405180910390fd5b60025f81905550565b5f5f5f610d6b84611121565b915091505f8203610da0577fffffffffffffffffffffffffffffffffffffffffffffffffffffffffffffffff92505050610de1565b5f6064603283610db091906115fb565b610dba9190611669565b905082670de0b6b3a764000082610dd191906115fb565b610ddb9190611669565b93505050505b919050565b8260025f8473ffffffffffffffffffffffffffffffffffffffff1673ffffffffffffffffffffffffffffffffffffffff1681526020019081526020015f205f8673ffffffffffffffffffffffffffffffffffffffff1673ffffffffffffffffffffffffffffffffffffffff1681526020019081526020015f205f828254610e6d91906118c1565b92505081905550828173ffffffffffffffffffffffffffffffffffffffff168373ffffffffffffffffffffffffffffffffffffffff167fd4ba8465e2e2f858e9b9c6fda40ac8453f934b469d57c1f7564620cddd7443de87604051610ed291906118f4565b60405180910390a45f8473ffffffffffffffffffffffffffffffffffffffff1663a9059cbb83866040518363ffffffff1660e01b8152600401610f1692919061189a565b6020604051808303815f875af1158015610f32573d5f5f3e3d5ffd5b505050506040513d601f19601f82011682018060405250810190610f569190611772565b905080610f8f576040517fcb6225d700000000000000000000000000000000000000000000000000000000815260040160405180910390fd5b5050505050565b8260035f8473ffffffffffffffffffffffffffffffffffffffff1673ffffffffffffffffffffffffffffffffffffffff1681526020019081526020015f205f828254610fe291906118c1565b925050819055505f7f000000000000000000000000000000000000000000000000000000000000000073ffffffffffffffffffffffffffffffffffffffff166323b872dd8330876040518463ffffffff1660e01b815260040161104793929190611708565b6020604051808303815f875af1158015611063573d5f5f3e3d5ffd5b505050506040513d601f19601f820116820180604052508101906110879190611772565b9050806110c0576040517fcb6225d700000000000000000000000000000000000000000000000000000000815260040160405180910390fd5b50505050565b5f6110d082610d5f565b9050670de0b6b3a7640000811015611114576040517f0d1d46bb00000000000000000000000000000000000000000000000000000000815260040160405180910390fd5b5050565b60015f81905550565b5f5f60035f8473ffffffffffffffffffffffffffffffffffffffff1673ffffffffffffffffffffffffffffffffffffffff1681526020019081526020015f2054915061116c836103e3565b9050915091565b5f61117e838361121b565b9050670de0b6b3a76400008110156111c2576040517f0d1d46bb00000000000000000000000000000000000000000000000000000000815260040160405180910390fd5b505050565b5f6111d283836112ae565b9050670de0b6b3a7640000811015611216576040517f0d1d46bb00000000000000000000000000000000000000000000000000000000815260040160405180910390fd5b505050565b5f5f5f61122785611121565b915091505f820361125c577fffffffffffffffffffffffffffffffffffffffffffffffffffffffffffffffff925050506112a8565b5f60646032868461126d91906118c1565b61127791906115fb565b6112819190611669565b905082670de0b6b3a76400008261129891906115fb565b6112a29190611669565b93505050505b92915050565b5f5f5f6112ba85611121565b915091505f82036112ef577fffffffffffffffffffffffffffffffffffffffffffffffffffffffffffffffff92505050611340565b5f82856112fc9190611699565b90505f606460328461130e91906115fb565b6113189190611669565b905081670de0b6b3a76400008261132f91906115fb565b6113399190611669565b9450505050505b92915050565b5f5ffd5b5f73ffffffffffffffffffffffffffffffffffffffff82169050919050565b5f6113738261134a565b9050919050565b61138381611369565b811461138d575f5ffd5b50565b5f8135905061139e8161137a565b92915050565b5f819050919050565b6113b6816113a4565b81146113c0575f5ffd5b50565b5f813590506113d1816113ad565b92915050565b5f5f5f606084860312156113ee576113ed611346565b5b5f6113fb86828701611390565b935050602061140c86828701611390565b925050604061141d868287016113c3565b9150509250925092565b5f6020828403121561143c5761143b611346565b5b5f61144984828501611390565b91505092915050565b61145b816113a4565b82525050565b5f6020820190506114745f830184611452565b92915050565b5f819050919050565b5f61149d6114986114938461134a565b61147a565b61134a565b9050919050565b5f6114ae82611483565b9050919050565b5f6114bf826114a4565b9050919050565b6114cf816114b5565b82525050565b5f6020820190506114e85f8301846114c6565b92915050565b5f5f5f6060848603121561150557611504611346565b5b5f61151286828701611390565b9350506020611523868287016113c3565b9250506040611534868287016113c3565b9150509250925092565b5f6040820190506115515f830185611452565b61155e6020830184611452565b9392505050565b5f5f6040838503121561157b5761157a611346565b5b5f61158885828601611390565b9250506020611599858286016113c3565b9150509250929050565b5f602082840312156115b8576115b7611346565b5b5f6115c5848285016113c3565b91505092915050565b7f4e487b71000000000000000000000000000000000000000000000000000000005f52601160045260245ffd5b5f611605826113a4565b9150611610836113a4565b925082820261161e816113a4565b91508282048414831517611635576116346115ce565b5b5092915050565b7f4e487b71000000000000000000000000000000000000000000000000000000005f52601260045260245ffd5b5f611673826113a4565b915061167e836113a4565b92508261168e5761168d61163c565b5b828204905092915050565b5f6116a3826113a4565b91506116ae836113a4565b92508282019050808211156116c6576116c56115ce565b5b92915050565b7f4e487b71000000000000000000000000000000000000000000000000000000005f52603260045260245ffd5b61170281611369565b82525050565b5f60608201905061171b5f8301866116f9565b61172860208301856116f9565b6117356040830184611452565b949350505050565b5f8115159050919050565b6117518161173d565b811461175b575f5ffd5b50565b5f8151905061176c81611748565b92915050565b5f6020828403121561178757611786611346565b5b5f6117948482850161175e565b91505092915050565b5f69ffffffffffffffffffff82169050919050565b6117bb8161179d565b81146117c5575f5ffd5b50565b5f815190506117d6816117b2565b92915050565b5f819050919050565b6117ee816117dc565b81146117f8575f5ffd5b50565b5f81519050611809816117e5565b92915050565b5f8151905061181d816113ad565b92915050565b5f5f5f5f5f60a0868803121561183c5761183b611346565b5b5f611849888289016117c8565b955050602061185a888289016117fb565b945050604061186b8882890161180f565b935050606061187c8882890161180f565b925050608061188d888289016117c8565b9150509295509295909350565b5f6040820190506118ad5f8301856116f9565b6118ba6020830184611452565b9392505050565b5f6118cb826113a4565b91506118d6836113a4565b92508282039050818111156118ee576118ed6115ce565b5b92915050565b5f6020820190506119075f8301846116f9565b9291505056fea2646970667358221220cd7bc19b3f9833535558650942fe023433a8575b497c4d6665c4bae7e9706e9464736f6c634300081c0033","linkReferences":{}},"methodIdentifiers":{"burnDsc(uint256)":"f6876608","depositCollateral(address,uint256)":"a5d5db0c","depositCollateralAndMint(address,uint256,uint256)":"7ba3ca5c","getAccountCollateralValueInUsd(address)":"545af4fe","getAccountInformation(address)":"7be564fc","getTokenAmountFromUsd(address,uint256)":"afea2e48","getUsdValue(address,uint256)":"c660d112","getUserHealthFactor(address)":"71cbfc98","i_dsc()":"5e338bb3","liquidate(address,address,uint256)":"26c01303","mintDsc(uint256)":"c9b7c327","redeemCollateral(address,uint256)":"9acd81b3","redeemCollateralForDsc(address,uint256,uint256)":"f419ea9c"},"id":32}