{"abi":[{"type":"constructor","inputs":[{"name":"tokenAddresses","type":"address[]","internalType":"address[]"},{"name":"priceFeedAddresses","type":"address[]","internalType":"address[]"},{"name":"dscAddress","type":"address","internalType":"address"}],"stateMutability":"nonpayable"},{"type":"function","name":"burnDsc","inputs":[{"name":"amountDscToBurn","type":"uint256","internalType":"uint256"}],"outputs":[],"stateMutability":"nonpayable"},{"type":"function","name":"depositCollateral","inputs":[{"name":"tokenCollateralAddress","type":"address","internalType":"address"},{"name":"amountCollateral","type":"uint256","internalType":"uint256"}],"outputs":[],"stateMutability":"nonpayable"},{"type":"function","name":"depositCollateralAndMint","inputs":[{"name":"tokenCollateralAddress","type":"address","internalType":"address"},{"name":"amountCollateral","type":"uint256","internalType":"uint256"},{"name":"amountDscToMint","type":"uint256","internalType":"uint256"}],"outputs":[],"stateMutability":"nonpayable"},{"type":"function","name":"getAccountCollateralValueInUsd","inputs":[{"name":"user","type":"address","internalType":"address"}],"outputs":[{"name":"totalCollateralValueInUsd","type":"uint256","internalType":"uint256"}],"stateMutability":"view"},{"type":"function","name":"getAccountInformation","inputs":[{"name":"user","type":"address","internalType":"address"}],"outputs":[{"name":"totalDscMinted","type":"uint256","internalType":"uint256"},{"name":"collateralValueInUsd","type":"uint256","internalType":"uint256"}],"stateMutability":"view"},{"type":"function","name":"getCollateralDeposited","inputs":[{"name":"user","type":"address","internalType":"address"},{"name":"token","type":"address","internalType":"address"}],"outputs":[{"name":"","type":"uint256","internalType":"uint256"}],"stateMutability":"view"},{"type":"function","name":"getTokenAmountFromUsd","inputs":[{"name":"token","type":"address","internalType":"address"},{"name":"usdAmountInWei","type":"uint256","internalType":"uint256"}],"outputs":[{"name":"","type":"uint256","internalType":"uint256"}],"stateMutability":"view"},{"type":"function","name":"getUsdValue","inputs":[{"name":"token","type":"address","internalType":"address"},{"name":"amount","type":"uint256","internalType":"uint256"}],"outputs":[{"name":"","type":"uint256","internalType":"uint256"}],"stateMutability":"view"},{"type":"function","name":"getUserHealthFactor","inputs":[{"name":"user","type":"address","internalType":"address"}],"outputs":[{"name":"","type":"uint256","internalType":"uint256"}],"stateMutability":"view"},{"type":"function","name":"i_dsc","inputs":[],"outputs":[{"name":"","type":"address","internalType":"contract DecentralizedStablecoin"}],"stateMutability":"view"},{"type":"function","name":"liquidate","inputs":[{"name":"tokenCollateralAddress","type":"address","internalType":"address"},{"name":"user","type":"address","internalType":"address"},{"name":"debtToCover","type":"uint256","internalType":"uint256"}],"outputs":[],"stateMutability":"nonpayable"},{"type":"function","name":"mintDsc","inputs":[{"name":"amountDcsToMint","type":"uint256","internalType":"uint256"}],"outputs":[],"stateMutability":"nonpayable"},{"type":"function","name":"redeemCollateral","inputs":[{"name":"tokenCollateralAddress","type":"address","internalType":"address"},{"name":"amountCollateral","type":"uint256","internalType":"uint256"}],"outputs":[],"stateMutability":"nonpayable"},{"type":"function","name":"redeemCollateralForDsc","inputs":[{"name":"tokenCollateralAddress","type":"address","internalType":"address"},{"name":"amountCollateral","type":"uint256","internalType":"uint256"},{"name":"amountDscToBurn","type":"uint256","internalType":"uint256"}],"outputs":[],"stateMutability":"nonpayable"},{"type":"event","name":"CollateralRedeemed","inputs":[{"name":"redeemedFrom","type":"address","indexed":true,"internalType":"address"},{"name":"redeemedTo","type":"address","indexed":true,"internalType":"address"},{"name":"amountCollateral","type":"uint256","indexed":true,"internalType":"uint256"},{"name":"tokenCollateralAddress","type":"address","indexed":false,"internalType":"address"}],"anonymous":false},{"type":"event","name":"CollaterallDeposited","inputs":[{"name":"user","type":"address","indexed":true,"internalType":"address"},{"name":"tokenCollateralAddress","type":"address","indexed":true,"internalType":"address"},{"name":"amountCollateral","type":"uint256","indexed":true,"internalType":"uint256"}],"anonymous":false},{"type":"event","name":"DscBurned","inputs":[{"name":"user","type":"address","indexed":true,"internalType":"address"},{"name":"amountDscBurned","type":"uint256","indexed":true,"internalType":"uint256"}],"anonymous":false},{"type":"event","name":"DscMinted","inputs":[{"name":"user","type":"address","indexed":true,"internalType":"address"},{"name":"amountDscMinted","type":"uint256","indexed":true,"internalType":"uint256"}],"anonymous":false},{"type":"error","name":"DSCEngine_BreaksHealthFactor","inputs":[]},{"type":"error","name":"DSCEngine_HealthFactorNotImproved","inputs":[]},{"type":"error","name":"DSCEngine_InsufficientCollateralBalance","inputs":[]},{"type":"error","name":"DSCEngine_MintFailed","inputs":[]},{"type":"error","name":"DSCEngine_MustBeMoreThanZero","inputs":[]},{"type":"error","name":"DSCEngine_NotZeroAddress","inputs":[]},{"type":"error","name":"DSCEngine_RedeemValueGreaterThanCollateral","inputs":[]},{"type":"error","name":"DSCEngine_TokenAddressesAndPriceFeedAddressesMustBeTheSameLength","inputs":[]},{"type":"error","name":"DSCEngine_TokenIsNotAllowed","inputs":[]},{"type":"error","name":"DSCEngine_TransferFailed","inputs":[]},{"type":"error","name":"DSCEngine_UserHealthFactorIsNotBroken","inputs":[]},{"type":"error","name":"DecentralizedStablecoin_AmountExceedsBalance","inputs":[]},{"type":"error","name":"DecentralizedStablecoin_MustBeMoreThanZero","inputs":[]},{"type":"error","name":"DecentralizedStablecoin_NotZeroAddress","inputs":[]},{"type":"error","name":"ReentrancyGuardReentrantCall","inputs":[]}],"bytecode":{"object":"0x60a060405234801561000f575f5ffd5b50604051612073380380612073833981810160405281019061003191906103af565b60015f819055508151835114610073576040517f2eca782d00000000000000000000000000000000000000000000000000000000815260040160405180910390fd5b5f5f90505b83518110156101b75782818151811061009457610093610437565b5b602002602001015160015f8684815181106100b2576100b1610437565b5b602002602001015173ffffffffffffffffffffffffffffffffffffffff1673ffffffffffffffffffffffffffffffffffffffff1681526020019081526020015f205f6101000a81548173ffffffffffffffffffffffffffffffffffffffff021916908373ffffffffffffffffffffffffffffffffffffffff160217905550600484828151811061014557610144610437565b5b6020026020010151908060018154018082558091505060019003905f5260205f20015f9091909190916101000a81548173ffffffffffffffffffffffffffffffffffffffff021916908373ffffffffffffffffffffffffffffffffffffffff1602179055508080600101915050610078565b508073ffffffffffffffffffffffffffffffffffffffff1660808173ffffffffffffffffffffffffffffffffffffffff1681525050505050610464565b5f604051905090565b5f5ffd5b5f5ffd5b5f5ffd5b5f601f19601f8301169050919050565b7f4e487b71000000000000000000000000000000000000000000000000000000005f52604160045260245ffd5b61024f82610209565b810181811067ffffffffffffffff8211171561026e5761026d610219565b5b80604052505050565b5f6102806101f4565b905061028c8282610246565b919050565b5f67ffffffffffffffff8211156102ab576102aa610219565b5b602082029050602081019050919050565b5f5ffd5b5f73ffffffffffffffffffffffffffffffffffffffff82169050919050565b5f6102e9826102c0565b9050919050565b6102f9816102df565b8114610303575f5ffd5b50565b5f81519050610314816102f0565b92915050565b5f61032c61032784610291565b610277565b9050808382526020820190506020840283018581111561034f5761034e6102bc565b5b835b8181101561037857806103648882610306565b845260208401935050602081019050610351565b5050509392505050565b5f82601f83011261039657610395610205565b5b81516103a684826020860161031a565b91505092915050565b5f5f5f606084860312156103c6576103c56101fd565b5b5f84015167ffffffffffffffff8111156103e3576103e2610201565b5b6103ef86828701610382565b935050602084015167ffffffffffffffff8111156104105761040f610201565b5b61041c86828701610382565b925050604061042d86828701610306565b9150509250925092565b7f4e487b71000000000000000000000000000000000000000000000000000000005f52603260045260245ffd5b608051611be26104915f395f81816106b401528181610cee01528181610e7001526112c40152611be25ff3fe608060405234801561000f575f5ffd5b50600436106100e8575f3560e01c80639acd81b31161008a578063c660d11211610064578063c660d1121461026b578063c9b7c3271461029b578063f419ea9c146102b7578063f6876608146102d3576100e8565b80639acd81b314610203578063a5d5db0c1461021f578063afea2e481461023b576100e8565b80635e338bb3116100c65780635e338bb31461016857806371cbfc98146101865780637ba3ca5c146101b65780637be564fc146101d2576100e8565b806326c01303146100ec5780634b9085af14610108578063545af4fe14610138575b5f5ffd5b61010660048036038101906101019190611638565b6102ef565b005b610122600480360381019061011d9190611688565b610536565b60405161012f91906116d5565b60405180910390f35b610152600480360381019061014d91906116ee565b6105b8565b60405161015f91906116d5565b60405180910390f35b6101706106b2565b60405161017d9190611774565b60405180910390f35b6101a0600480360381019061019b91906116ee565b6106d6565b6040516101ad91906116d5565b60405180910390f35b6101d060048036038101906101cb919061178d565b6106e7565b005b6101ec60048036038101906101e791906116ee565b6106ff565b6040516101fa9291906117dd565b60405180910390f35b61021d60048036038101906102189190611804565b610717565b005b61023960048036038101906102349190611804565b61077d565b005b61025560048036038101906102509190611804565b610a30565b60405161026291906116d5565b60405180910390f35b61028560048036038101906102809190611804565b610b3e565b60405161029291906116d5565b60405180910390f35b6102b560048036038101906102b09190611842565b610c4c565b005b6102d160048036038101906102cc919061178d565b610e11565b005b6102ed60048036038101906102e89190611842565b610e29565b005b805f8103610329576040517fb2e8123e00000000000000000000000000000000000000000000000000000000815260040160405180910390fd5b610331610f3c565b5f61033b84610f80565b9050670de0b6b3a7640000811061037e576040517fccb0fee500000000000000000000000000000000000000000000000000000000815260040160405180910390fd5b5f6103898685610a30565b90505f6064600a8361039b919061189a565b6103a59190611908565b90505f81836103b49190611938565b905060025f8873ffffffffffffffffffffffffffffffffffffffff1673ffffffffffffffffffffffffffffffffffffffff1681526020019081526020015f205f8973ffffffffffffffffffffffffffffffffffffffff1673ffffffffffffffffffffffffffffffffffffffff1681526020019081526020015f20548111156104b25760025f8873ffffffffffffffffffffffffffffffffffffffff1673ffffffffffffffffffffffffffffffffffffffff1681526020019081526020015f205f8973ffffffffffffffffffffffffffffffffffffffff1673ffffffffffffffffffffffffffffffffffffffff1681526020019081526020015f205490505b6104be88828933611007565b6104c986883361126e565b5f6104d388610f80565b90508481111580156104ec5750670de0b6b3a764000085105b15610523576040517f6d44d06500000000000000000000000000000000000000000000000000000000815260040160405180910390fd5b505050505061053061139e565b50505050565b5f60025f8473ffffffffffffffffffffffffffffffffffffffff1673ffffffffffffffffffffffffffffffffffffffff1681526020019081526020015f205f8373ffffffffffffffffffffffffffffffffffffffff1673ffffffffffffffffffffffffffffffffffffffff1681526020019081526020015f2054905092915050565b5f5f5f90505b6004805490508110156106ac575f600482815481106105e0576105df61196b565b5b905f5260205f20015f9054906101000a900473ffffffffffffffffffffffffffffffffffffffff1690505f60025f8673ffffffffffffffffffffffffffffffffffffffff1673ffffffffffffffffffffffffffffffffffffffff1681526020019081526020015f205f8373ffffffffffffffffffffffffffffffffffffffff1673ffffffffffffffffffffffffffffffffffffffff1681526020019081526020015f205490506106908282610b3e565b8461069b9190611938565b9350505080806001019150506105be565b50919050565b7f000000000000000000000000000000000000000000000000000000000000000081565b5f6106e082610f80565b9050919050565b6106f1838361077d565b6106fa81610c4c565b505050565b5f5f61070a836113a7565b8092508193505050915091565b805f8103610751576040517fb2e8123e00000000000000000000000000000000000000000000000000000000815260040160405180910390fd5b610759610f3c565b6107643384846113f9565b61077083833333611007565b61077861139e565b505050565b805f81036107b7576040517fb2e8123e00000000000000000000000000000000000000000000000000000000815260040160405180910390fd5b825f73ffffffffffffffffffffffffffffffffffffffff1660015f8373ffffffffffffffffffffffffffffffffffffffff1673ffffffffffffffffffffffffffffffffffffffff1681526020019081526020015f205f9054906101000a900473ffffffffffffffffffffffffffffffffffffffff1673ffffffffffffffffffffffffffffffffffffffff1603610879576040517f7425fef400000000000000000000000000000000000000000000000000000000815260040160405180910390fd5b610881610f3c565b8260025f3373ffffffffffffffffffffffffffffffffffffffff1673ffffffffffffffffffffffffffffffffffffffff1681526020019081526020015f205f8673ffffffffffffffffffffffffffffffffffffffff1673ffffffffffffffffffffffffffffffffffffffff1681526020019081526020015f205f8282546109089190611938565b92505081905550828473ffffffffffffffffffffffffffffffffffffffff163373ffffffffffffffffffffffffffffffffffffffff167f93ad675cac5b11251fded71864b27637a55ab8152d5666787d15a082fd78507e60405160405180910390a45f8473ffffffffffffffffffffffffffffffffffffffff166323b872dd3330876040518463ffffffff1660e01b81526004016109a8939291906119a7565b6020604051808303815f875af11580156109c4573d5f5f3e3d5ffd5b505050506040513d601f19601f820116820180604052508101906109e89190611a11565b905080610a21576040517fcb6225d700000000000000000000000000000000000000000000000000000000815260040160405180910390fd5b50610a2a61139e565b50505050565b5f5f60015f8573ffffffffffffffffffffffffffffffffffffffff1673ffffffffffffffffffffffffffffffffffffffff1681526020019081526020015f205f9054906101000a900473ffffffffffffffffffffffffffffffffffffffff1690505f8173ffffffffffffffffffffffffffffffffffffffff1663feaf968c6040518163ffffffff1660e01b815260040160a060405180830381865afa158015610adb573d5f5f3e3d5ffd5b505050506040513d601f19601f82011682018060405250810190610aff9190611ac2565b5050509150506402540be40081610b16919061189a565b670de0b6b3a764000085610b2a919061189a565b610b349190611908565b9250505092915050565b5f5f60015f8573ffffffffffffffffffffffffffffffffffffffff1673ffffffffffffffffffffffffffffffffffffffff1681526020019081526020015f205f9054906101000a900473ffffffffffffffffffffffffffffffffffffffff1690505f8173ffffffffffffffffffffffffffffffffffffffff1663feaf968c6040518163ffffffff1660e01b815260040160a060405180830381865afa158015610be9573d5f5f3e3d5ffd5b505050506040513d601f19601f82011682018060405250810190610c0d9190611ac2565b505050915050670de0b6b3a7640000846402540be40083610c2e919061189a565b610c38919061189a565b610c429190611908565b9250505092915050565b805f8103610c86576040517fb2e8123e00000000000000000000000000000000000000000000000000000000815260040160405180910390fd5b610c8e610f3c565b610c98338361144f565b8160035f3373ffffffffffffffffffffffffffffffffffffffff1673ffffffffffffffffffffffffffffffffffffffff1681526020019081526020015f205f828254610ce49190611938565b925050819055505f7f000000000000000000000000000000000000000000000000000000000000000073ffffffffffffffffffffffffffffffffffffffff166340c10f1933856040518363ffffffff1660e01b8152600401610d47929190611b39565b6020604051808303815f875af1158015610d63573d5f5f3e3d5ffd5b505050506040513d601f19601f82011682018060405250810190610d879190611a11565b905080610dc0576040517fd2c38ade00000000000000000000000000000000000000000000000000000000815260040160405180910390fd5b823373ffffffffffffffffffffffffffffffffffffffff167f8db25d285cfee36b751645e359b467e6607747eb227c55242e25bf4030ebdb2e60405160405180910390a350610e0d61139e565b5050565b610e1a81610e29565b610e248383610717565b505050565b805f8103610e63576040517fb2e8123e00000000000000000000000000000000000000000000000000000000815260040160405180910390fd5b610e6e82333361126e565b7f000000000000000000000000000000000000000000000000000000000000000073ffffffffffffffffffffffffffffffffffffffff166342966c68836040518263ffffffff1660e01b8152600401610ec791906116d5565b5f604051808303815f87803b158015610ede575f5ffd5b505af1158015610ef0573d5f5f3e3d5ffd5b50505050813373ffffffffffffffffffffffffffffffffffffffff167ff412005626bd5545446b80adbebf2936ed08f5c5796808db07c640a864a1419760405160405180910390a35050565b60025f5403610f77576040517f3ee5aeb500000000000000000000000000000000000000000000000000000000815260040160405180910390fd5b60025f81905550565b5f5f5f610f8c846113a7565b915091505f8203610fc1577fffffffffffffffffffffffffffffffffffffffffffffffffffffffffffffffff92505050611002565b5f6064603283610fd1919061189a565b610fdb9190611908565b905082670de0b6b3a764000082610ff2919061189a565b610ffc9190611908565b93505050505b919050565b5f60025f8473ffffffffffffffffffffffffffffffffffffffff1673ffffffffffffffffffffffffffffffffffffffff1681526020019081526020015f205f8673ffffffffffffffffffffffffffffffffffffffff1673ffffffffffffffffffffffffffffffffffffffff1681526020019081526020015f20549050838110156110bd576040517faa24680700000000000000000000000000000000000000000000000000000000815260040160405180910390fd5b8360025f8573ffffffffffffffffffffffffffffffffffffffff1673ffffffffffffffffffffffffffffffffffffffff1681526020019081526020015f205f8773ffffffffffffffffffffffffffffffffffffffff1673ffffffffffffffffffffffffffffffffffffffff1681526020019081526020015f205f8282546111449190611b60565b92505081905550838273ffffffffffffffffffffffffffffffffffffffff168473ffffffffffffffffffffffffffffffffffffffff167fd4ba8465e2e2f858e9b9c6fda40ac8453f934b469d57c1f7564620cddd7443de886040516111a99190611b93565b60405180910390a45f8573ffffffffffffffffffffffffffffffffffffffff1663a9059cbb84876040518363ffffffff1660e01b81526004016111ed929190611b39565b6020604051808303815f875af1158015611209573d5f5f3e3d5ffd5b505050506040513d601f19601f8201168201806040525081019061122d9190611a11565b905080611266576040517fcb6225d700000000000000000000000000000000000000000000000000000000815260040160405180910390fd5b505050505050565b8260035f8473ffffffffffffffffffffffffffffffffffffffff1673ffffffffffffffffffffffffffffffffffffffff1681526020019081526020015f205f8282546112ba9190611b60565b925050819055505f7f000000000000000000000000000000000000000000000000000000000000000073ffffffffffffffffffffffffffffffffffffffff166323b872dd8330876040518463ffffffff1660e01b815260040161131f939291906119a7565b6020604051808303815f875af115801561133b573d5f5f3e3d5ffd5b505050506040513d601f19601f8201168201806040525081019061135f9190611a11565b905080611398576040517fcb6225d700000000000000000000000000000000000000000000000000000000815260040160405180910390fd5b50505050565b60015f81905550565b5f5f60035f8473ffffffffffffffffffffffffffffffffffffffff1673ffffffffffffffffffffffffffffffffffffffff1681526020019081526020015f205491506113f2836105b8565b9050915091565b5f6114058484846114cb565b9050670de0b6b3a7640000811015611449576040517f0d1d46bb00000000000000000000000000000000000000000000000000000000815260040160405180910390fd5b50505050565b5f5f61145a846113a7565b915091505f606460328361146e919061189a565b6114789190611908565b90505f83856114879190611938565b9050818111156114c3576040517f0d1d46bb00000000000000000000000000000000000000000000000000000000815260040160405180910390fd5b505050505050565b5f5f5f6114d7866113a7565b915091505f820361150c577fffffffffffffffffffffffffffffffffffffffffffffffffffffffffffffffff925050506115a0565b5f6115178686610b3e565b905080821015611553576040517fdaf0406b00000000000000000000000000000000000000000000000000000000815260040160405180910390fd5b5f6064603283856115649190611b60565b61156e919061189a565b6115789190611908565b905083670de0b6b3a76400008261158f919061189a565b6115999190611908565b9450505050505b9392505050565b5f5ffd5b5f73ffffffffffffffffffffffffffffffffffffffff82169050919050565b5f6115d4826115ab565b9050919050565b6115e4816115ca565b81146115ee575f5ffd5b50565b5f813590506115ff816115db565b92915050565b5f819050919050565b61161781611605565b8114611621575f5ffd5b50565b5f813590506116328161160e565b92915050565b5f5f5f6060848603121561164f5761164e6115a7565b5b5f61165c868287016115f1565b935050602061166d868287016115f1565b925050604061167e86828701611624565b9150509250925092565b5f5f6040838503121561169e5761169d6115a7565b5b5f6116ab858286016115f1565b92505060206116bc858286016115f1565b9150509250929050565b6116cf81611605565b82525050565b5f6020820190506116e85f8301846116c6565b92915050565b5f60208284031215611703576117026115a7565b5b5f611710848285016115f1565b91505092915050565b5f819050919050565b5f61173c611737611732846115ab565b611719565b6115ab565b9050919050565b5f61174d82611722565b9050919050565b5f61175e82611743565b9050919050565b61176e81611754565b82525050565b5f6020820190506117875f830184611765565b92915050565b5f5f5f606084860312156117a4576117a36115a7565b5b5f6117b1868287016115f1565b93505060206117c286828701611624565b92505060406117d386828701611624565b9150509250925092565b5f6040820190506117f05f8301856116c6565b6117fd60208301846116c6565b9392505050565b5f5f6040838503121561181a576118196115a7565b5b5f611827858286016115f1565b925050602061183885828601611624565b9150509250929050565b5f60208284031215611857576118566115a7565b5b5f61186484828501611624565b91505092915050565b7f4e487b71000000000000000000000000000000000000000000000000000000005f52601160045260245ffd5b5f6118a482611605565b91506118af83611605565b92508282026118bd81611605565b915082820484148315176118d4576118d361186d565b5b5092915050565b7f4e487b71000000000000000000000000000000000000000000000000000000005f52601260045260245ffd5b5f61191282611605565b915061191d83611605565b92508261192d5761192c6118db565b5b828204905092915050565b5f61194282611605565b915061194d83611605565b92508282019050808211156119655761196461186d565b5b92915050565b7f4e487b71000000000000000000000000000000000000000000000000000000005f52603260045260245ffd5b6119a1816115ca565b82525050565b5f6060820190506119ba5f830186611998565b6119c76020830185611998565b6119d460408301846116c6565b949350505050565b5f8115159050919050565b6119f0816119dc565b81146119fa575f5ffd5b50565b5f81519050611a0b816119e7565b92915050565b5f60208284031215611a2657611a256115a7565b5b5f611a33848285016119fd565b91505092915050565b5f69ffffffffffffffffffff82169050919050565b611a5a81611a3c565b8114611a64575f5ffd5b50565b5f81519050611a7581611a51565b92915050565b5f819050919050565b611a8d81611a7b565b8114611a97575f5ffd5b50565b5f81519050611aa881611a84565b92915050565b5f81519050611abc8161160e565b92915050565b5f5f5f5f5f60a08688031215611adb57611ada6115a7565b5b5f611ae888828901611a67565b9550506020611af988828901611a9a565b9450506040611b0a88828901611aae565b9350506060611b1b88828901611aae565b9250506080611b2c88828901611a67565b9150509295509295909350565b5f604082019050611b4c5f830185611998565b611b5960208301846116c6565b9392505050565b5f611b6a82611605565b9150611b7583611605565b9250828203905081811115611b8d57611b8c61186d565b5b92915050565b5f602082019050611ba65f830184611998565b9291505056fea2646970667358221220bee59930364754677eb46ea2375516b79a5791a2b4d238303ffc1385ddeea09f64736f6c634300081c0033","linkReferences":{}},"methodIdentifiers":{"burnDsc(uint256)":"f6876608","depositCollateral(address,uint256)":"a5d5db0c","depositCollateralAndMint(address,uint256,uint256)":"7ba3ca5c","getAccountCollateralValueInUsd(address)":"545af4fe","getAccountInformation(address)":"7be564fc","getCollateralDeposited(address,address)":"4b9085af","getTokenAmountFromUsd(address,uint256)":"afea2e48","getUsdValue(address,uint256)":"c660d112","getUserHealthFactor(address)":"71cbfc98","i_dsc()":"5e338bb3","liquidate(address,address,uint256)":"26c01303","mintDsc(uint256)":"c9b7c327","redeemCollateral(address,uint256)":"9acd81b3","redeemCollateralForDsc(address,uint256,uint256)":"f419ea9c"},"id":32}