{"abi":[{"type":"constructor","inputs":[{"name":"tokenAddresses","type":"address[]","internalType":"address[]"},{"name":"priceFeedAddresses","type":"address[]","internalType":"address[]"},{"name":"dscAddress","type":"address","internalType":"address"}],"stateMutability":"nonpayable"},{"type":"function","name":"burnDsc","inputs":[{"name":"amountDscToBurn","type":"uint256","internalType":"uint256"}],"outputs":[],"stateMutability":"nonpayable"},{"type":"function","name":"depositCollateral","inputs":[{"name":"tokenCollateralAddress","type":"address","internalType":"address"},{"name":"amountCollateral","type":"uint256","internalType":"uint256"}],"outputs":[],"stateMutability":"nonpayable"},{"type":"function","name":"depositCollateralAndMint","inputs":[{"name":"tokenCollateralAddress","type":"address","internalType":"address"},{"name":"amountCollateral","type":"uint256","internalType":"uint256"},{"name":"amountDscToMint","type":"uint256","internalType":"uint256"}],"outputs":[],"stateMutability":"nonpayable"},{"type":"function","name":"getAccountCollateralValueInUsd","inputs":[{"name":"user","type":"address","internalType":"address"}],"outputs":[{"name":"totalCollateralValueInUsd","type":"uint256","internalType":"uint256"}],"stateMutability":"view"},{"type":"function","name":"getUsdValue","inputs":[{"name":"token","type":"address","internalType":"address"},{"name":"amount","type":"uint256","internalType":"uint256"}],"outputs":[{"name":"","type":"uint256","internalType":"uint256"}],"stateMutability":"view"},{"type":"function","name":"i_dsc","inputs":[],"outputs":[{"name":"","type":"address","internalType":"contract DecentralizedStablecoin"}],"stateMutability":"view"},{"type":"function","name":"liquidate","inputs":[],"outputs":[],"stateMutability":"nonpayable"},{"type":"function","name":"mintDsc","inputs":[{"name":"amountDcsToMint","type":"uint256","internalType":"uint256"}],"outputs":[],"stateMutability":"nonpayable"},{"type":"function","name":"redeemCollateral","inputs":[{"name":"tokenCollateralAddress","type":"address","internalType":"address"},{"name":"amountCollateral","type":"uint256","internalType":"uint256"}],"outputs":[],"stateMutability":"nonpayable"},{"type":"function","name":"redeemCollateralForDsc","inputs":[{"name":"tokenCollateralAddress","type":"address","internalType":"address"},{"name":"amountCollateral","type":"uint256","internalType":"uint256"},{"name":"amountDscToBurn","type":"uint256","internalType":"uint256"}],"outputs":[],"stateMutability":"nonpayable"},{"type":"event","name":"CollateralRedeemed","inputs":[{"name":"user","type":"address","indexed":true,"internalType":"address"},{"name":"amountCollateral","type":"uint256","indexed":true,"internalType":"uint256"},{"name":"tokenCollateralAddress","type":"address","indexed":true,"internalType":"address"}],"anonymous":false},{"type":"event","name":"CollaterallDeposited","inputs":[{"name":"user","type":"address","indexed":true,"internalType":"address"},{"name":"tokenCollateralAddress","type":"address","indexed":true,"internalType":"address"},{"name":"amountCollateral","type":"uint256","indexed":true,"internalType":"uint256"}],"anonymous":false},{"type":"error","name":"DSCEngine_BreaksHealthFactor","inputs":[{"name":"userHealthFactor","type":"uint256","internalType":"uint256"}]},{"type":"error","name":"DSCEngine_MintFailed","inputs":[]},{"type":"error","name":"DSCEngine_MustBeMoreThanZero","inputs":[]},{"type":"error","name":"DSCEngine_NotZeroAddress","inputs":[]},{"type":"error","name":"DSCEngine_TokenAddressesAndPriceFeedAddressesMustBeTheSameLength","inputs":[]},{"type":"error","name":"DSCEngine_TokenIsNotAllowed","inputs":[]},{"type":"error","name":"DSCEngine_TransferFailed","inputs":[]},{"type":"error","name":"DecentralizedStablecoin_AmountExceedsBalance","inputs":[]},{"type":"error","name":"DecentralizedStablecoin_MustBeMoreThanZero","inputs":[]},{"type":"error","name":"DecentralizedStablecoin_NotZeroAddress","inputs":[]},{"type":"error","name":"ReentrancyGuardReentrantCall","inputs":[]}],"bytecode":{"object":"0x60a060405234801561000f575f5ffd5b50604051611812380380611812833981810160405281019061003191906103af565b60015f819055508151835114610073576040517f2eca782d00000000000000000000000000000000000000000000000000000000815260040160405180910390fd5b5f5f90505b83518110156101b75782818151811061009457610093610437565b5b602002602001015160015f8684815181106100b2576100b1610437565b5b602002602001015173ffffffffffffffffffffffffffffffffffffffff1673ffffffffffffffffffffffffffffffffffffffff1681526020019081526020015f205f6101000a81548173ffffffffffffffffffffffffffffffffffffffff021916908373ffffffffffffffffffffffffffffffffffffffff160217905550600484828151811061014557610144610437565b5b6020026020010151908060018154018082558091505060019003905f5260205f20015f9091909190916101000a81548173ffffffffffffffffffffffffffffffffffffffff021916908373ffffffffffffffffffffffffffffffffffffffff1602179055508080600101915050610078565b508073ffffffffffffffffffffffffffffffffffffffff1660808173ffffffffffffffffffffffffffffffffffffffff1681525050505050610464565b5f604051905090565b5f5ffd5b5f5ffd5b5f5ffd5b5f601f19601f8301169050919050565b7f4e487b71000000000000000000000000000000000000000000000000000000005f52604160045260245ffd5b61024f82610209565b810181811067ffffffffffffffff8211171561026e5761026d610219565b5b80604052505050565b5f6102806101f4565b905061028c8282610246565b919050565b5f67ffffffffffffffff8211156102ab576102aa610219565b5b602082029050602081019050919050565b5f5ffd5b5f73ffffffffffffffffffffffffffffffffffffffff82169050919050565b5f6102e9826102c0565b9050919050565b6102f9816102df565b8114610303575f5ffd5b50565b5f81519050610314816102f0565b92915050565b5f61032c61032784610291565b610277565b9050808382526020820190506020840283018581111561034f5761034e6102bc565b5b835b8181101561037857806103648882610306565b845260208401935050602081019050610351565b5050509392505050565b5f82601f83011261039657610395610205565b5b81516103a684826020860161031a565b91505092915050565b5f5f5f606084860312156103c6576103c56101fd565b5b5f84015167ffffffffffffffff8111156103e3576103e2610201565b5b6103ef86828701610382565b935050602084015167ffffffffffffffff8111156104105761040f610201565b5b61041c86828701610382565b925050604061042d86828701610306565b9150509250925092565b7f4e487b71000000000000000000000000000000000000000000000000000000005f52603260045260245ffd5b6080516113816104915f395f81816102ce0152818161092101528181610a9f0152610b7501526113815ff3fe608060405234801561000f575f5ffd5b506004361061009c575f3560e01c8063a5d5db0c11610064578063a5d5db0c14610130578063c660d1121461014c578063c9b7c3271461017c578063f419ea9c14610198578063f6876608146101b45761009c565b806328a07025146100a0578063545af4fe146100aa5780635e338bb3146100da5780637ba3ca5c146100f85780639acd81b314610114575b5f5ffd5b6100a86101d0565b005b6100c460048036038101906100bf9190610e72565b6101d2565b6040516100d19190610eb5565b60405180910390f35b6100e26102cc565b6040516100ef9190610f29565b60405180910390f35b610112600480360381019061010d9190610f6c565b6102f0565b005b61012e60048036038101906101299190610fbc565b610308565b005b61014a60048036038101906101459190610fbc565b610500565b005b61016660048036038101906101619190610fbc565b6107b3565b6040516101739190610eb5565b60405180910390f35b61019660048036038101906101919190610ffa565b6108c1565b005b6101b260048036038101906101ad9190610f6c565b6109f7565b005b6101ce60048036038101906101c99190610ffa565b610a0f565b005b565b5f5f5f90505b6004805490508110156102c6575f600482815481106101fa576101f9611025565b5b905f5260205f20015f9054906101000a900473ffffffffffffffffffffffffffffffffffffffff1690505f60025f8673ffffffffffffffffffffffffffffffffffffffff1673ffffffffffffffffffffffffffffffffffffffff1681526020019081526020015f205f8373ffffffffffffffffffffffffffffffffffffffff1673ffffffffffffffffffffffffffffffffffffffff1681526020019081526020015f205490506102aa82826107b3565b846102b5919061107f565b9350505080806001019150506101d8565b50919050565b7f000000000000000000000000000000000000000000000000000000000000000081565b6102fa8383610500565b610303816108c1565b505050565b805f8103610342576040517fb2e8123e00000000000000000000000000000000000000000000000000000000815260040160405180910390fd5b61034a610bfe565b6103543383610c42565b8160025f3373ffffffffffffffffffffffffffffffffffffffff1673ffffffffffffffffffffffffffffffffffffffff1681526020019081526020015f205f8573ffffffffffffffffffffffffffffffffffffffff1673ffffffffffffffffffffffffffffffffffffffff1681526020019081526020015f205f8282546103db91906110b2565b925050819055508273ffffffffffffffffffffffffffffffffffffffff16823373ffffffffffffffffffffffffffffffffffffffff167f598bbf6c0c86dc5d42aa3888d6f5a3c3bc0d3fc17c88bfff70d1b0ab62481b1560405160405180910390a45f8373ffffffffffffffffffffffffffffffffffffffff1663a9059cbb33856040518363ffffffff1660e01b81526004016104799291906110f4565b6020604051808303815f875af1158015610495573d5f5f3e3d5ffd5b505050506040513d601f19601f820116820180604052508101906104b99190611150565b9050806104f2576040517fcb6225d700000000000000000000000000000000000000000000000000000000815260040160405180910390fd5b506104fb610c9a565b505050565b805f810361053a576040517fb2e8123e00000000000000000000000000000000000000000000000000000000815260040160405180910390fd5b825f73ffffffffffffffffffffffffffffffffffffffff1660015f8373ffffffffffffffffffffffffffffffffffffffff1673ffffffffffffffffffffffffffffffffffffffff1681526020019081526020015f205f9054906101000a900473ffffffffffffffffffffffffffffffffffffffff1673ffffffffffffffffffffffffffffffffffffffff16036105fc576040517f7425fef400000000000000000000000000000000000000000000000000000000815260040160405180910390fd5b610604610bfe565b8260025f3373ffffffffffffffffffffffffffffffffffffffff1673ffffffffffffffffffffffffffffffffffffffff1681526020019081526020015f205f8673ffffffffffffffffffffffffffffffffffffffff1673ffffffffffffffffffffffffffffffffffffffff1681526020019081526020015f205f82825461068b919061107f565b92505081905550828473ffffffffffffffffffffffffffffffffffffffff163373ffffffffffffffffffffffffffffffffffffffff167f93ad675cac5b11251fded71864b27637a55ab8152d5666787d15a082fd78507e60405160405180910390a45f8473ffffffffffffffffffffffffffffffffffffffff166323b872dd3330876040518463ffffffff1660e01b815260040161072b9392919061117b565b6020604051808303815f875af1158015610747573d5f5f3e3d5ffd5b505050506040513d601f19601f8201168201806040525081019061076b9190611150565b9050806107a4576040517fcb6225d700000000000000000000000000000000000000000000000000000000815260040160405180910390fd5b506107ad610c9a565b50505050565b5f5f60015f8573ffffffffffffffffffffffffffffffffffffffff1673ffffffffffffffffffffffffffffffffffffffff1681526020019081526020015f205f9054906101000a900473ffffffffffffffffffffffffffffffffffffffff1690505f8173ffffffffffffffffffffffffffffffffffffffff1663feaf968c6040518163ffffffff1660e01b815260040160a060405180830381865afa15801561085e573d5f5f3e3d5ffd5b505050506040513d601f19601f820116820180604052508101906108829190611236565b505050915050670de0b6b3a7640000846402540be400836108a391906112ad565b6108ad91906112ad565b6108b7919061131b565b9250505092915050565b8060035f3373ffffffffffffffffffffffffffffffffffffffff1673ffffffffffffffffffffffffffffffffffffffff1681526020019081526020015f205f82825461090d919061107f565b9250508190555061091e3382610ca3565b5f7f000000000000000000000000000000000000000000000000000000000000000073ffffffffffffffffffffffffffffffffffffffff166340c10f1933846040518363ffffffff1660e01b815260040161097a9291906110f4565b6020604051808303815f875af1158015610996573d5f5f3e3d5ffd5b505050506040513d601f19601f820116820180604052508101906109ba9190611150565b9050806109f3576040517fd2c38ade00000000000000000000000000000000000000000000000000000000815260040160405180910390fd5b5050565b610a0081610a0f565b610a0a8383610308565b505050565b805f8103610a49576040517fb2e8123e00000000000000000000000000000000000000000000000000000000815260040160405180910390fd5b8160035f3373ffffffffffffffffffffffffffffffffffffffff1673ffffffffffffffffffffffffffffffffffffffff1681526020019081526020015f205f828254610a9591906110b2565b925050819055505f7f000000000000000000000000000000000000000000000000000000000000000073ffffffffffffffffffffffffffffffffffffffff166323b872dd3330866040518463ffffffff1660e01b8152600401610afa9392919061117b565b6020604051808303815f875af1158015610b16573d5f5f3e3d5ffd5b505050506040513d601f19601f82011682018060405250810190610b3a9190611150565b905080610b73576040517fcb6225d700000000000000000000000000000000000000000000000000000000815260040160405180910390fd5b7f000000000000000000000000000000000000000000000000000000000000000073ffffffffffffffffffffffffffffffffffffffff166342966c68846040518263ffffffff1660e01b8152600401610bcc9190610eb5565b5f604051808303815f87803b158015610be3575f5ffd5b505af1158015610bf5573d5f5f3e3d5ffd5b50505050505050565b60025f5403610c39576040517f3ee5aeb500000000000000000000000000000000000000000000000000000000815260040160405180910390fd5b60025f81905550565b5f610c4d8383610cfb565b90506001811015610c9557806040517f8b5c142b000000000000000000000000000000000000000000000000000000008152600401610c8c9190610eb5565b60405180910390fd5b505050565b60015f81905550565b5f610cae8383610d5c565b90506001811015610cf657806040517f8b5c142b000000000000000000000000000000000000000000000000000000008152600401610ced9190610eb5565b60405180910390fd5b505050565b5f5f5f610d0785610dc2565b915091505f606460328684610d1c91906110b2565b610d2691906112ad565b610d30919061131b565b905082670de0b6b3a764000082610d4791906112ad565b610d51919061131b565b935050505092915050565b5f5f5f610d6885610dc2565b915091505f8285610d79919061107f565b90505f6064603284610d8b91906112ad565b610d95919061131b565b905081670de0b6b3a764000082610dac91906112ad565b610db6919061131b565b94505050505092915050565b5f5f60035f8473ffffffffffffffffffffffffffffffffffffffff1673ffffffffffffffffffffffffffffffffffffffff1681526020019081526020015f20549150610e0d836101d2565b9050915091565b5f5ffd5b5f73ffffffffffffffffffffffffffffffffffffffff82169050919050565b5f610e4182610e18565b9050919050565b610e5181610e37565b8114610e5b575f5ffd5b50565b5f81359050610e6c81610e48565b92915050565b5f60208284031215610e8757610e86610e14565b5b5f610e9484828501610e5e565b91505092915050565b5f819050919050565b610eaf81610e9d565b82525050565b5f602082019050610ec85f830184610ea6565b92915050565b5f819050919050565b5f610ef1610eec610ee784610e18565b610ece565b610e18565b9050919050565b5f610f0282610ed7565b9050919050565b5f610f1382610ef8565b9050919050565b610f2381610f09565b82525050565b5f602082019050610f3c5f830184610f1a565b92915050565b610f4b81610e9d565b8114610f55575f5ffd5b50565b5f81359050610f6681610f42565b92915050565b5f5f5f60608486031215610f8357610f82610e14565b5b5f610f9086828701610e5e565b9350506020610fa186828701610f58565b9250506040610fb286828701610f58565b9150509250925092565b5f5f60408385031215610fd257610fd1610e14565b5b5f610fdf85828601610e5e565b9250506020610ff085828601610f58565b9150509250929050565b5f6020828403121561100f5761100e610e14565b5b5f61101c84828501610f58565b91505092915050565b7f4e487b71000000000000000000000000000000000000000000000000000000005f52603260045260245ffd5b7f4e487b71000000000000000000000000000000000000000000000000000000005f52601160045260245ffd5b5f61108982610e9d565b915061109483610e9d565b92508282019050808211156110ac576110ab611052565b5b92915050565b5f6110bc82610e9d565b91506110c783610e9d565b92508282039050818111156110df576110de611052565b5b92915050565b6110ee81610e37565b82525050565b5f6040820190506111075f8301856110e5565b6111146020830184610ea6565b9392505050565b5f8115159050919050565b61112f8161111b565b8114611139575f5ffd5b50565b5f8151905061114a81611126565b92915050565b5f6020828403121561116557611164610e14565b5b5f6111728482850161113c565b91505092915050565b5f60608201905061118e5f8301866110e5565b61119b60208301856110e5565b6111a86040830184610ea6565b949350505050565b5f69ffffffffffffffffffff82169050919050565b6111ce816111b0565b81146111d8575f5ffd5b50565b5f815190506111e9816111c5565b92915050565b5f819050919050565b611201816111ef565b811461120b575f5ffd5b50565b5f8151905061121c816111f8565b92915050565b5f8151905061123081610f42565b92915050565b5f5f5f5f5f60a0868803121561124f5761124e610e14565b5b5f61125c888289016111db565b955050602061126d8882890161120e565b945050604061127e88828901611222565b935050606061128f88828901611222565b92505060806112a0888289016111db565b9150509295509295909350565b5f6112b782610e9d565b91506112c283610e9d565b92508282026112d081610e9d565b915082820484148315176112e7576112e6611052565b5b5092915050565b7f4e487b71000000000000000000000000000000000000000000000000000000005f52601260045260245ffd5b5f61132582610e9d565b915061133083610e9d565b9250826113405761133f6112ee565b5b82820490509291505056fea26469706673582212201fa22ed3b7c8116c39ef016e82ab927af14ab97851f22ce4e8bbdd814fbfbc0264736f6c634300081c0033","linkReferences":{}},"methodIdentifiers":{"burnDsc(uint256)":"f6876608","depositCollateral(address,uint256)":"a5d5db0c","depositCollateralAndMint(address,uint256,uint256)":"7ba3ca5c","getAccountCollateralValueInUsd(address)":"545af4fe","getUsdValue(address,uint256)":"c660d112","i_dsc()":"5e338bb3","liquidate()":"28a07025","mintDsc(uint256)":"c9b7c327","redeemCollateral(address,uint256)":"9acd81b3","redeemCollateralForDsc(address,uint256,uint256)":"f419ea9c"},"id":32}