{"abi":[{"type":"constructor","inputs":[{"name":"tokenAddresses","type":"address[]","internalType":"address[]"},{"name":"priceFeedAddresses","type":"address[]","internalType":"address[]"},{"name":"dscAddress","type":"address","internalType":"address"}],"stateMutability":"nonpayable"},{"type":"function","name":"burnDsc","inputs":[{"name":"amountDscToBurn","type":"uint256","internalType":"uint256"}],"outputs":[],"stateMutability":"nonpayable"},{"type":"function","name":"depositCollateral","inputs":[{"name":"tokenCollateralAddress","type":"address","internalType":"address"},{"name":"amountCollateral","type":"uint256","internalType":"uint256"}],"outputs":[],"stateMutability":"nonpayable"},{"type":"function","name":"depositCollateralAndMint","inputs":[{"name":"tokenCollateralAddress","type":"address","internalType":"address"},{"name":"amountCollateral","type":"uint256","internalType":"uint256"},{"name":"amountDscToMint","type":"uint256","internalType":"uint256"}],"outputs":[],"stateMutability":"nonpayable"},{"type":"function","name":"getAccountCollateralValueInUsd","inputs":[{"name":"user","type":"address","internalType":"address"}],"outputs":[{"name":"totalCollateralValueInUsd","type":"uint256","internalType":"uint256"}],"stateMutability":"view"},{"type":"function","name":"getAccountInformation","inputs":[{"name":"user","type":"address","internalType":"address"}],"outputs":[{"name":"totalDscMinted","type":"uint256","internalType":"uint256"},{"name":"collateralValueInUsd","type":"uint256","internalType":"uint256"}],"stateMutability":"view"},{"type":"function","name":"getTokenAmountFromUsd","inputs":[{"name":"token","type":"address","internalType":"address"},{"name":"usdAmountInWei","type":"uint256","internalType":"uint256"}],"outputs":[{"name":"","type":"uint256","internalType":"uint256"}],"stateMutability":"view"},{"type":"function","name":"getUsdValue","inputs":[{"name":"token","type":"address","internalType":"address"},{"name":"amount","type":"uint256","internalType":"uint256"}],"outputs":[{"name":"","type":"uint256","internalType":"uint256"}],"stateMutability":"view"},{"type":"function","name":"i_dsc","inputs":[],"outputs":[{"name":"","type":"address","internalType":"contract DecentralizedStablecoin"}],"stateMutability":"view"},{"type":"function","name":"liquidate","inputs":[{"name":"tokenCollateralAddress","type":"address","internalType":"address"},{"name":"user","type":"address","internalType":"address"},{"name":"debtToCover","type":"uint256","internalType":"uint256"}],"outputs":[],"stateMutability":"nonpayable"},{"type":"function","name":"mintDsc","inputs":[{"name":"amountDcsToMint","type":"uint256","internalType":"uint256"}],"outputs":[],"stateMutability":"nonpayable"},{"type":"function","name":"redeemCollateral","inputs":[{"name":"tokenCollateralAddress","type":"address","internalType":"address"},{"name":"amountCollateral","type":"uint256","internalType":"uint256"}],"outputs":[],"stateMutability":"nonpayable"},{"type":"function","name":"redeemCollateralForDsc","inputs":[{"name":"tokenCollateralAddress","type":"address","internalType":"address"},{"name":"amountCollateral","type":"uint256","internalType":"uint256"},{"name":"amountDscToBurn","type":"uint256","internalType":"uint256"}],"outputs":[],"stateMutability":"nonpayable"},{"type":"event","name":"CollateralRedeemed","inputs":[{"name":"redeemedFrom","type":"address","indexed":true,"internalType":"address"},{"name":"redeemedTo","type":"address","indexed":true,"internalType":"address"},{"name":"amountCollateral","type":"uint256","indexed":true,"internalType":"uint256"},{"name":"tokenCollateralAddress","type":"address","indexed":false,"internalType":"address"}],"anonymous":false},{"type":"event","name":"CollaterallDeposited","inputs":[{"name":"user","type":"address","indexed":true,"internalType":"address"},{"name":"tokenCollateralAddress","type":"address","indexed":true,"internalType":"address"},{"name":"amountCollateral","type":"uint256","indexed":true,"internalType":"uint256"}],"anonymous":false},{"type":"error","name":"DSCEngine_BreaksHealthFactor","inputs":[{"name":"userHealthFactor","type":"uint256","internalType":"uint256"}]},{"type":"error","name":"DSCEngine_HealthFactorNotImproved","inputs":[]},{"type":"error","name":"DSCEngine_MintFailed","inputs":[]},{"type":"error","name":"DSCEngine_MustBeMoreThanZero","inputs":[]},{"type":"error","name":"DSCEngine_NotZeroAddress","inputs":[]},{"type":"error","name":"DSCEngine_TokenAddressesAndPriceFeedAddressesMustBeTheSameLength","inputs":[]},{"type":"error","name":"DSCEngine_TokenIsNotAllowed","inputs":[]},{"type":"error","name":"DSCEngine_TransferFailed","inputs":[]},{"type":"error","name":"DSCEngine_UserHealthFactorIsNotBroken","inputs":[]},{"type":"error","name":"DecentralizedStablecoin_AmountExceedsBalance","inputs":[]},{"type":"error","name":"DecentralizedStablecoin_MustBeMoreThanZero","inputs":[]},{"type":"error","name":"DecentralizedStablecoin_NotZeroAddress","inputs":[]},{"type":"error","name":"ReentrancyGuardReentrantCall","inputs":[]}],"bytecode":{"object":"0x60a060405234801561000f575f5ffd5b50604051611c7b380380611c7b833981810160405281019061003191906103af565b60015f819055508151835114610073576040517f2eca782d00000000000000000000000000000000000000000000000000000000815260040160405180910390fd5b5f5f90505b83518110156101b75782818151811061009457610093610437565b5b602002602001015160015f8684815181106100b2576100b1610437565b5b602002602001015173ffffffffffffffffffffffffffffffffffffffff1673ffffffffffffffffffffffffffffffffffffffff1681526020019081526020015f205f6101000a81548173ffffffffffffffffffffffffffffffffffffffff021916908373ffffffffffffffffffffffffffffffffffffffff160217905550600484828151811061014557610144610437565b5b6020026020010151908060018154018082558091505060019003905f5260205f20015f9091909190916101000a81548173ffffffffffffffffffffffffffffffffffffffff021916908373ffffffffffffffffffffffffffffffffffffffff1602179055508080600101915050610078565b508073ffffffffffffffffffffffffffffffffffffffff1660808173ffffffffffffffffffffffffffffffffffffffff1681525050505050610464565b5f604051905090565b5f5ffd5b5f5ffd5b5f5ffd5b5f601f19601f8301169050919050565b7f4e487b71000000000000000000000000000000000000000000000000000000005f52604160045260245ffd5b61024f82610209565b810181811067ffffffffffffffff8211171561026e5761026d610219565b5b80604052505050565b5f6102806101f4565b905061028c8282610246565b919050565b5f67ffffffffffffffff8211156102ab576102aa610219565b5b602082029050602081019050919050565b5f5ffd5b5f73ffffffffffffffffffffffffffffffffffffffff82169050919050565b5f6102e9826102c0565b9050919050565b6102f9816102df565b8114610303575f5ffd5b50565b5f81519050610314816102f0565b92915050565b5f61032c61032784610291565b610277565b9050808382526020820190506020840283018581111561034f5761034e6102bc565b5b835b8181101561037857806103648882610306565b845260208401935050602081019050610351565b5050509392505050565b5f82601f83011261039657610395610205565b5b81516103a684826020860161031a565b91505092915050565b5f5f5f606084860312156103c6576103c56101fd565b5b5f84015167ffffffffffffffff8111156103e3576103e2610201565b5b6103ef86828701610382565b935050602084015167ffffffffffffffff8111156104105761040f610201565b5b61041c86828701610382565b925050604061042d86828701610306565b9150509250925092565b7f4e487b71000000000000000000000000000000000000000000000000000000005f52603260045260245ffd5b6080516117ea6104915f395f818161049401528181610a7a01528181610baf0152610ed601526117ea5ff3fe608060405234801561000f575f5ffd5b50600436106100b2575f3560e01c8063a5d5db0c1161006f578063a5d5db0c14610189578063afea2e48146101a5578063c660d112146101d5578063c9b7c32714610205578063f419ea9c14610221578063f68766081461023d576100b2565b806326c01303146100b6578063545af4fe146100d25780635e338bb3146101025780637ba3ca5c146101205780637be564fc1461013c5780639acd81b31461016d575b5f5ffd5b6100d060048036038101906100cb919061127e565b610259565b005b6100ec60048036038101906100e791906112ce565b610398565b6040516100f99190611308565b60405180910390f35b61010a610492565b604051610117919061137c565b60405180910390f35b61013a60048036038101906101359190611395565b6104b6565b005b610156600480360381019061015191906112ce565b6104ce565b6040516101649291906113e5565b60405180910390f35b6101876004803603810190610182919061140c565b6104e6565b005b6101a3600480360381019061019e919061140c565b61054b565b005b6101bf60048036038101906101ba919061140c565b6107fe565b6040516101cc9190611308565b60405180910390f35b6101ef60048036038101906101ea919061140c565b61090c565b6040516101fc9190611308565b60405180910390f35b61021f600480360381019061021a919061144a565b610a1a565b005b61023b60048036038101906102369190611395565b610b50565b005b6102576004803603810190610252919061144a565b610b68565b005b805f8103610293576040517fb2e8123e00000000000000000000000000000000000000000000000000000000815260040160405180910390fd5b61029b610c37565b5f6102a584610c7b565b9050670de0b6b3a764000081106102e8576040517fccb0fee500000000000000000000000000000000000000000000000000000000815260040160405180910390fd5b5f6102f386856107fe565b90505f6064600a8361030591906114a2565b61030f9190611510565b90505f818361031e9190611540565b905061032c88828933610cd0565b610337868833610e80565b5f61034188610c7b565b905084811061037c576040517f6d44d06500000000000000000000000000000000000000000000000000000000815260040160405180910390fd5b61038588610fb0565b505050505061039261100d565b50505050565b5f5f5f90505b60048054905081101561048c575f600482815481106103c0576103bf611573565b5b905f5260205f20015f9054906101000a900473ffffffffffffffffffffffffffffffffffffffff1690505f60025f8673ffffffffffffffffffffffffffffffffffffffff1673ffffffffffffffffffffffffffffffffffffffff1681526020019081526020015f205f8373ffffffffffffffffffffffffffffffffffffffff1673ffffffffffffffffffffffffffffffffffffffff1681526020019081526020015f20549050610470828261090c565b8461047b9190611540565b93505050808060010191505061039e565b50919050565b7f000000000000000000000000000000000000000000000000000000000000000081565b6104c0838361054b565b6104c981610a1a565b505050565b5f5f6104d983611016565b8092508193505050915091565b805f8103610520576040517fb2e8123e00000000000000000000000000000000000000000000000000000000815260040160405180910390fd5b610528610c37565b6105323383611068565b61053e83833333610cd0565b61054661100d565b505050565b805f8103610585576040517fb2e8123e00000000000000000000000000000000000000000000000000000000815260040160405180910390fd5b825f73ffffffffffffffffffffffffffffffffffffffff1660015f8373ffffffffffffffffffffffffffffffffffffffff1673ffffffffffffffffffffffffffffffffffffffff1681526020019081526020015f205f9054906101000a900473ffffffffffffffffffffffffffffffffffffffff1673ffffffffffffffffffffffffffffffffffffffff1603610647576040517f7425fef400000000000000000000000000000000000000000000000000000000815260040160405180910390fd5b61064f610c37565b8260025f3373ffffffffffffffffffffffffffffffffffffffff1673ffffffffffffffffffffffffffffffffffffffff1681526020019081526020015f205f8673ffffffffffffffffffffffffffffffffffffffff1673ffffffffffffffffffffffffffffffffffffffff1681526020019081526020015f205f8282546106d69190611540565b92505081905550828473ffffffffffffffffffffffffffffffffffffffff163373ffffffffffffffffffffffffffffffffffffffff167f93ad675cac5b11251fded71864b27637a55ab8152d5666787d15a082fd78507e60405160405180910390a45f8473ffffffffffffffffffffffffffffffffffffffff166323b872dd3330876040518463ffffffff1660e01b8152600401610776939291906115af565b6020604051808303815f875af1158015610792573d5f5f3e3d5ffd5b505050506040513d601f19601f820116820180604052508101906107b69190611619565b9050806107ef576040517fcb6225d700000000000000000000000000000000000000000000000000000000815260040160405180910390fd5b506107f861100d565b50505050565b5f5f60015f8573ffffffffffffffffffffffffffffffffffffffff1673ffffffffffffffffffffffffffffffffffffffff1681526020019081526020015f205f9054906101000a900473ffffffffffffffffffffffffffffffffffffffff1690505f8173ffffffffffffffffffffffffffffffffffffffff1663feaf968c6040518163ffffffff1660e01b815260040160a060405180830381865afa1580156108a9573d5f5f3e3d5ffd5b505050506040513d601f19601f820116820180604052508101906108cd91906116ca565b5050509150506402540be400816108e491906114a2565b670de0b6b3a7640000856108f891906114a2565b6109029190611510565b9250505092915050565b5f5f60015f8573ffffffffffffffffffffffffffffffffffffffff1673ffffffffffffffffffffffffffffffffffffffff1681526020019081526020015f205f9054906101000a900473ffffffffffffffffffffffffffffffffffffffff1690505f8173ffffffffffffffffffffffffffffffffffffffff1663feaf968c6040518163ffffffff1660e01b815260040160a060405180830381865afa1580156109b7573d5f5f3e3d5ffd5b505050506040513d601f19601f820116820180604052508101906109db91906116ca565b505050915050670de0b6b3a7640000846402540be400836109fc91906114a2565b610a0691906114a2565b610a109190611510565b9250505092915050565b8060035f3373ffffffffffffffffffffffffffffffffffffffff1673ffffffffffffffffffffffffffffffffffffffff1681526020019081526020015f205f828254610a669190611540565b92505081905550610a7733826110c7565b5f7f000000000000000000000000000000000000000000000000000000000000000073ffffffffffffffffffffffffffffffffffffffff166340c10f1933846040518363ffffffff1660e01b8152600401610ad3929190611741565b6020604051808303815f875af1158015610aef573d5f5f3e3d5ffd5b505050506040513d601f19601f82011682018060405250810190610b139190611619565b905080610b4c576040517fd2c38ade00000000000000000000000000000000000000000000000000000000815260040160405180910390fd5b5050565b610b5981610b68565b610b6383836104e6565b505050565b805f8103610ba2576040517fb2e8123e00000000000000000000000000000000000000000000000000000000815260040160405180910390fd5b610bad823333610e80565b7f000000000000000000000000000000000000000000000000000000000000000073ffffffffffffffffffffffffffffffffffffffff166342966c68836040518263ffffffff1660e01b8152600401610c069190611308565b5f604051808303815f87803b158015610c1d575f5ffd5b505af1158015610c2f573d5f5f3e3d5ffd5b505050505050565b60025f5403610c72576040517f3ee5aeb500000000000000000000000000000000000000000000000000000000815260040160405180910390fd5b60025f81905550565b5f5f5f610c8784611016565b915091505f6064603283610c9b91906114a2565b610ca59190611510565b905082670de0b6b3a764000082610cbc91906114a2565b610cc69190611510565b9350505050919050565b8260025f8473ffffffffffffffffffffffffffffffffffffffff1673ffffffffffffffffffffffffffffffffffffffff1681526020019081526020015f205f8673ffffffffffffffffffffffffffffffffffffffff1673ffffffffffffffffffffffffffffffffffffffff1681526020019081526020015f205f828254610d579190611768565b92505081905550828173ffffffffffffffffffffffffffffffffffffffff168373ffffffffffffffffffffffffffffffffffffffff167fd4ba8465e2e2f858e9b9c6fda40ac8453f934b469d57c1f7564620cddd7443de87604051610dbc919061179b565b60405180910390a45f8473ffffffffffffffffffffffffffffffffffffffff1663a9059cbb83866040518363ffffffff1660e01b8152600401610e00929190611741565b6020604051808303815f875af1158015610e1c573d5f5f3e3d5ffd5b505050506040513d601f19601f82011682018060405250810190610e409190611619565b905080610e79576040517fcb6225d700000000000000000000000000000000000000000000000000000000815260040160405180910390fd5b5050505050565b8260035f8473ffffffffffffffffffffffffffffffffffffffff1673ffffffffffffffffffffffffffffffffffffffff1681526020019081526020015f205f828254610ecc9190611768565b925050819055505f7f000000000000000000000000000000000000000000000000000000000000000073ffffffffffffffffffffffffffffffffffffffff166323b872dd8330876040518463ffffffff1660e01b8152600401610f31939291906115af565b6020604051808303815f875af1158015610f4d573d5f5f3e3d5ffd5b505050506040513d601f19601f82011682018060405250810190610f719190611619565b905080610faa576040517fcb6225d700000000000000000000000000000000000000000000000000000000815260040160405180910390fd5b50505050565b5f610fba82610c7b565b9050670de0b6b3a764000081101561100957806040517f8b5c142b0000000000000000000000000000000000000000000000000000000081526004016110009190611308565b60405180910390fd5b5050565b60015f81905550565b5f5f60035f8473ffffffffffffffffffffffffffffffffffffffff1673ffffffffffffffffffffffffffffffffffffffff1681526020019081526020015f2054915061106183610398565b9050915091565b5f6110738383611126565b9050670de0b6b3a76400008110156110c257806040517f8b5c142b0000000000000000000000000000000000000000000000000000000081526004016110b99190611308565b60405180910390fd5b505050565b5f6110d28383611187565b9050670de0b6b3a764000081101561112157806040517f8b5c142b0000000000000000000000000000000000000000000000000000000081526004016111189190611308565b60405180910390fd5b505050565b5f5f5f61113285611016565b915091505f6064603286846111479190611768565b61115191906114a2565b61115b9190611510565b905082670de0b6b3a76400008261117291906114a2565b61117c9190611510565b935050505092915050565b5f5f5f61119385611016565b915091505f82856111a49190611540565b90505f60646032846111b691906114a2565b6111c09190611510565b905081670de0b6b3a7640000826111d791906114a2565b6111e19190611510565b94505050505092915050565b5f5ffd5b5f73ffffffffffffffffffffffffffffffffffffffff82169050919050565b5f61121a826111f1565b9050919050565b61122a81611210565b8114611234575f5ffd5b50565b5f8135905061124581611221565b92915050565b5f819050919050565b61125d8161124b565b8114611267575f5ffd5b50565b5f8135905061127881611254565b92915050565b5f5f5f60608486031215611295576112946111ed565b5b5f6112a286828701611237565b93505060206112b386828701611237565b92505060406112c48682870161126a565b9150509250925092565b5f602082840312156112e3576112e26111ed565b5b5f6112f084828501611237565b91505092915050565b6113028161124b565b82525050565b5f60208201905061131b5f8301846112f9565b92915050565b5f819050919050565b5f61134461133f61133a846111f1565b611321565b6111f1565b9050919050565b5f6113558261132a565b9050919050565b5f6113668261134b565b9050919050565b6113768161135c565b82525050565b5f60208201905061138f5f83018461136d565b92915050565b5f5f5f606084860312156113ac576113ab6111ed565b5b5f6113b986828701611237565b93505060206113ca8682870161126a565b92505060406113db8682870161126a565b9150509250925092565b5f6040820190506113f85f8301856112f9565b61140560208301846112f9565b9392505050565b5f5f60408385031215611422576114216111ed565b5b5f61142f85828601611237565b92505060206114408582860161126a565b9150509250929050565b5f6020828403121561145f5761145e6111ed565b5b5f61146c8482850161126a565b91505092915050565b7f4e487b71000000000000000000000000000000000000000000000000000000005f52601160045260245ffd5b5f6114ac8261124b565b91506114b78361124b565b92508282026114c58161124b565b915082820484148315176114dc576114db611475565b5b5092915050565b7f4e487b71000000000000000000000000000000000000000000000000000000005f52601260045260245ffd5b5f61151a8261124b565b91506115258361124b565b925082611535576115346114e3565b5b828204905092915050565b5f61154a8261124b565b91506115558361124b565b925082820190508082111561156d5761156c611475565b5b92915050565b7f4e487b71000000000000000000000000000000000000000000000000000000005f52603260045260245ffd5b6115a981611210565b82525050565b5f6060820190506115c25f8301866115a0565b6115cf60208301856115a0565b6115dc60408301846112f9565b949350505050565b5f8115159050919050565b6115f8816115e4565b8114611602575f5ffd5b50565b5f81519050611613816115ef565b92915050565b5f6020828403121561162e5761162d6111ed565b5b5f61163b84828501611605565b91505092915050565b5f69ffffffffffffffffffff82169050919050565b61166281611644565b811461166c575f5ffd5b50565b5f8151905061167d81611659565b92915050565b5f819050919050565b61169581611683565b811461169f575f5ffd5b50565b5f815190506116b08161168c565b92915050565b5f815190506116c481611254565b92915050565b5f5f5f5f5f60a086880312156116e3576116e26111ed565b5b5f6116f08882890161166f565b9550506020611701888289016116a2565b9450506040611712888289016116b6565b9350506060611723888289016116b6565b92505060806117348882890161166f565b9150509295509295909350565b5f6040820190506117545f8301856115a0565b61176160208301846112f9565b9392505050565b5f6117728261124b565b915061177d8361124b565b925082820390508181111561179557611794611475565b5b92915050565b5f6020820190506117ae5f8301846115a0565b9291505056fea2646970667358221220bd74a092a176a72188b7a2e919a28c0a0b243d9a75df158675a7ff88b28d9e3164736f6c634300081c0033","linkReferences":{}},"methodIdentifiers":{"burnDsc(uint256)":"f6876608","depositCollateral(address,uint256)":"a5d5db0c","depositCollateralAndMint(address,uint256,uint256)":"7ba3ca5c","getAccountCollateralValueInUsd(address)":"545af4fe","getAccountInformation(address)":"7be564fc","getTokenAmountFromUsd(address,uint256)":"afea2e48","getUsdValue(address,uint256)":"c660d112","i_dsc()":"5e338bb3","liquidate(address,address,uint256)":"26c01303","mintDsc(uint256)":"c9b7c327","redeemCollateral(address,uint256)":"9acd81b3","redeemCollateralForDsc(address,uint256,uint256)":"f419ea9c"},"id":32}