{"abi":[{"type":"constructor","inputs":[{"name":"tokenAddresses","type":"address[]","internalType":"address[]"},{"name":"priceFeedAddresses","type":"address[]","internalType":"address[]"},{"name":"dscAddress","type":"address","internalType":"address"}],"stateMutability":"nonpayable"},{"type":"function","name":"burnDsc","inputs":[{"name":"amountDscToBurn","type":"uint256","internalType":"uint256"}],"outputs":[],"stateMutability":"nonpayable"},{"type":"function","name":"calculateHealthFactor","inputs":[{"name":"totalDscMinted","type":"uint256","internalType":"uint256"},{"name":"collateralValueInUsd","type":"uint256","internalType":"uint256"}],"outputs":[{"name":"","type":"uint256","internalType":"uint256"}],"stateMutability":"pure"},{"type":"function","name":"depositCollateral","inputs":[{"name":"tokenCollateralAddress","type":"address","internalType":"address"},{"name":"amountCollateral","type":"uint256","internalType":"uint256"}],"outputs":[],"stateMutability":"nonpayable"},{"type":"function","name":"depositCollateralAndMint","inputs":[{"name":"tokenCollateralAddress","type":"address","internalType":"address"},{"name":"amountCollateral","type":"uint256","internalType":"uint256"},{"name":"amountDscToMint","type":"uint256","internalType":"uint256"}],"outputs":[],"stateMutability":"nonpayable"},{"type":"function","name":"getAccountCollateralValueInUsd","inputs":[{"name":"user","type":"address","internalType":"address"}],"outputs":[{"name":"totalCollateralValueInUsd","type":"uint256","internalType":"uint256"}],"stateMutability":"view"},{"type":"function","name":"getAccountInformation","inputs":[{"name":"user","type":"address","internalType":"address"}],"outputs":[{"name":"totalDscMinted","type":"uint256","internalType":"uint256"},{"name":"collateralValueInUsd","type":"uint256","internalType":"uint256"}],"stateMutability":"view"},{"type":"function","name":"getCollateralDeposited","inputs":[{"name":"user","type":"address","internalType":"address"},{"name":"token","type":"address","internalType":"address"}],"outputs":[{"name":"","type":"uint256","internalType":"uint256"}],"stateMutability":"view"},{"type":"function","name":"getCollateralTokenPriceFeed","inputs":[{"name":"token","type":"address","internalType":"address"}],"outputs":[{"name":"","type":"address","internalType":"address"}],"stateMutability":"view"},{"type":"function","name":"getCollateralTokens","inputs":[],"outputs":[{"name":"","type":"address[]","internalType":"address[]"}],"stateMutability":"view"},{"type":"function","name":"getTokenAmountFromUsd","inputs":[{"name":"token","type":"address","internalType":"address"},{"name":"usdAmountInWei","type":"uint256","internalType":"uint256"}],"outputs":[{"name":"","type":"uint256","internalType":"uint256"}],"stateMutability":"view"},{"type":"function","name":"getUsdValue","inputs":[{"name":"token","type":"address","internalType":"address"},{"name":"amount","type":"uint256","internalType":"uint256"}],"outputs":[{"name":"","type":"uint256","internalType":"uint256"}],"stateMutability":"view"},{"type":"function","name":"getUserHealthFactor","inputs":[{"name":"user","type":"address","internalType":"address"}],"outputs":[{"name":"","type":"uint256","internalType":"uint256"}],"stateMutability":"view"},{"type":"function","name":"i_dsc","inputs":[],"outputs":[{"name":"","type":"address","internalType":"contract DecentralizedStablecoin"}],"stateMutability":"view"},{"type":"function","name":"liquidate","inputs":[{"name":"tokenCollateralAddress","type":"address","internalType":"address"},{"name":"user","type":"address","internalType":"address"},{"name":"debtToCover","type":"uint256","internalType":"uint256"}],"outputs":[],"stateMutability":"nonpayable"},{"type":"function","name":"mintDsc","inputs":[{"name":"amountDcsToMint","type":"uint256","internalType":"uint256"}],"outputs":[],"stateMutability":"nonpayable"},{"type":"function","name":"redeemCollateral","inputs":[{"name":"tokenCollateralAddress","type":"address","internalType":"address"},{"name":"amountCollateral","type":"uint256","internalType":"uint256"}],"outputs":[],"stateMutability":"nonpayable"},{"type":"function","name":"redeemCollateralForDsc","inputs":[{"name":"tokenCollateralAddress","type":"address","internalType":"address"},{"name":"amountCollateral","type":"uint256","internalType":"uint256"},{"name":"amountDscToBurn","type":"uint256","internalType":"uint256"}],"outputs":[],"stateMutability":"nonpayable"},{"type":"event","name":"CollateralRedeemed","inputs":[{"name":"redeemedFrom","type":"address","indexed":true,"internalType":"address"},{"name":"redeemedTo","type":"address","indexed":true,"internalType":"address"},{"name":"amountCollateral","type":"uint256","indexed":true,"internalType":"uint256"},{"name":"tokenCollateralAddress","type":"address","indexed":false,"internalType":"address"}],"anonymous":false},{"type":"event","name":"CollaterallDeposited","inputs":[{"name":"user","type":"address","indexed":true,"internalType":"address"},{"name":"tokenCollateralAddress","type":"address","indexed":true,"internalType":"address"},{"name":"amountCollateral","type":"uint256","indexed":true,"internalType":"uint256"}],"anonymous":false},{"type":"event","name":"DscBurned","inputs":[{"name":"user","type":"address","indexed":true,"internalType":"address"},{"name":"amountDscBurned","type":"uint256","indexed":true,"internalType":"uint256"}],"anonymous":false},{"type":"event","name":"DscMinted","inputs":[{"name":"user","type":"address","indexed":true,"internalType":"address"},{"name":"amountDscMinted","type":"uint256","indexed":true,"internalType":"uint256"}],"anonymous":false},{"type":"error","name":"DSCEngine_BreaksHealthFactor","inputs":[]},{"type":"error","name":"DSCEngine_CollateralValueOverflow","inputs":[]},{"type":"error","name":"DSCEngine_HealthFactorNotImproved","inputs":[]},{"type":"error","name":"DSCEngine_InsufficientCollateralBalance","inputs":[]},{"type":"error","name":"DSCEngine_MintFailed","inputs":[]},{"type":"error","name":"DSCEngine_MustBeMoreThanZero","inputs":[]},{"type":"error","name":"DSCEngine_NotZeroAddress","inputs":[]},{"type":"error","name":"DSCEngine_RedeemValueGreaterThanCollateral","inputs":[]},{"type":"error","name":"DSCEngine_TokenAddressesAndPriceFeedAddressesMustBeTheSameLength","inputs":[]},{"type":"error","name":"DSCEngine_TokenIsNotAllowed","inputs":[]},{"type":"error","name":"DSCEngine_TransferFailed","inputs":[]},{"type":"error","name":"DSCEngine_UserHealthFactorIsNotBroken","inputs":[]},{"type":"error","name":"DecentralizedStablecoin_AmountExceedsBalance","inputs":[]},{"type":"error","name":"DecentralizedStablecoin_MustBeMoreThanZero","inputs":[]},{"type":"error","name":"DecentralizedStablecoin_NotZeroAddress","inputs":[]},{"type":"error","name":"ReentrancyGuardReentrantCall","inputs":[]}],"bytecode":{"object":"0x60a060405234801561000f575f5ffd5b50604051612464380380612464833981810160405281019061003191906103af565b60015f819055508151835114610073576040517f2eca782d00000000000000000000000000000000000000000000000000000000815260040160405180910390fd5b5f5f90505b83518110156101b75782818151811061009457610093610437565b5b602002602001015160015f8684815181106100b2576100b1610437565b5b602002602001015173ffffffffffffffffffffffffffffffffffffffff1673ffffffffffffffffffffffffffffffffffffffff1681526020019081526020015f205f6101000a81548173ffffffffffffffffffffffffffffffffffffffff021916908373ffffffffffffffffffffffffffffffffffffffff160217905550600484828151811061014557610144610437565b5b6020026020010151908060018154018082558091505060019003905f5260205f20015f9091909190916101000a81548173ffffffffffffffffffffffffffffffffffffffff021916908373ffffffffffffffffffffffffffffffffffffffff1602179055508080600101915050610078565b508073ffffffffffffffffffffffffffffffffffffffff1660808173ffffffffffffffffffffffffffffffffffffffff1681525050505050610464565b5f604051905090565b5f5ffd5b5f5ffd5b5f5ffd5b5f601f19601f8301169050919050565b7f4e487b71000000000000000000000000000000000000000000000000000000005f52604160045260245ffd5b61024f82610209565b810181811067ffffffffffffffff8211171561026e5761026d610219565b5b80604052505050565b5f6102806101f4565b905061028c8282610246565b919050565b5f67ffffffffffffffff8211156102ab576102aa610219565b5b602082029050602081019050919050565b5f5ffd5b5f73ffffffffffffffffffffffffffffffffffffffff82169050919050565b5f6102e9826102c0565b9050919050565b6102f9816102df565b8114610303575f5ffd5b50565b5f81519050610314816102f0565b92915050565b5f61032c61032784610291565b610277565b9050808382526020820190506020840283018581111561034f5761034e6102bc565b5b835b8181101561037857806103648882610306565b845260208401935050602081019050610351565b5050509392505050565b5f82601f83011261039657610395610205565b5b81516103a684826020860161031a565b91505092915050565b5f5f5f606084860312156103c6576103c56101fd565b5b5f84015167ffffffffffffffff8111156103e3576103e2610201565b5b6103ef86828701610382565b935050602084015167ffffffffffffffff8111156104105761040f610201565b5b61041c86828701610382565b925050604061042d86828701610306565b9150509250925092565b7f4e487b71000000000000000000000000000000000000000000000000000000005f52603260045260245ffd5b608051611fd36104915f395f818161081501528181610f1c0152818161109e01526115670152611fd35ff3fe608060405234801561000f575f5ffd5b5060043610610109575f3560e01c80637be564fc116100a0578063b58eb63f1161006f578063b58eb63f146102ec578063c660d1121461030a578063c9b7c3271461033a578063f419ea9c14610356578063f68766081461037257610109565b80637be564fc146102535780639acd81b314610284578063a5d5db0c146102a0578063afea2e48146102bc57610109565b8063545af4fe116100dc578063545af4fe146101b95780635e338bb3146101e957806371cbfc98146102075780637ba3ca5c1461023757610109565b806301f728841461010d5780631c08adda1461013d57806326c013031461016d5780634b9085af14610189575b5f5ffd5b61012760048036038101906101229190611881565b61038e565b60405161013491906118ce565b60405180910390f35b61015760048036038101906101529190611941565b6103a1565b604051610164919061197b565b60405180910390f35b61018760048036038101906101829190611994565b610406565b005b6101a3600480360381019061019e91906119e4565b61064d565b6040516101b091906118ce565b60405180910390f35b6101d360048036038101906101ce9190611941565b6106cf565b6040516101e091906118ce565b60405180910390f35b6101f1610813565b6040516101fe9190611a7d565b60405180910390f35b610221600480360381019061021c9190611941565b610837565b60405161022e91906118ce565b60405180910390f35b610251600480360381019061024c9190611a96565b610848565b005b61026d60048036038101906102689190611941565b610860565b60405161027b929190611ae6565b60405180910390f35b61029e60048036038101906102999190611b0d565b610878565b005b6102ba60048036038101906102b59190611b0d565b6108de565b005b6102d660048036038101906102d19190611b0d565b610b91565b6040516102e391906118ce565b60405180910390f35b6102f4610cc0565b6040516103019190611c02565b60405180910390f35b610324600480360381019061031f9190611b0d565b610d4b565b60405161033191906118ce565b60405180910390f35b610354600480360381019061034f9190611c22565b610e7a565b005b610370600480360381019061036b9190611a96565b61103f565b005b61038c60048036038101906103879190611c22565b611057565b005b5f610399838361116a565b905092915050565b5f60015f8373ffffffffffffffffffffffffffffffffffffffff1673ffffffffffffffffffffffffffffffffffffffff1681526020019081526020015f205f9054906101000a900473ffffffffffffffffffffffffffffffffffffffff169050919050565b805f8103610440576040517fb2e8123e00000000000000000000000000000000000000000000000000000000815260040160405180910390fd5b6104486111df565b5f61045284611223565b9050670de0b6b3a76400008110610495576040517fccb0fee500000000000000000000000000000000000000000000000000000000815260040160405180910390fd5b5f6104a08685610b91565b90505f6064600a836104b29190611c7a565b6104bc9190611ce8565b90505f81836104cb9190611d18565b905060025f8873ffffffffffffffffffffffffffffffffffffffff1673ffffffffffffffffffffffffffffffffffffffff1681526020019081526020015f205f8973ffffffffffffffffffffffffffffffffffffffff1673ffffffffffffffffffffffffffffffffffffffff1681526020019081526020015f20548111156105c95760025f8873ffffffffffffffffffffffffffffffffffffffff1673ffffffffffffffffffffffffffffffffffffffff1681526020019081526020015f205f8973ffffffffffffffffffffffffffffffffffffffff1673ffffffffffffffffffffffffffffffffffffffff1681526020019081526020015f205490505b6105d5888289336112aa565b6105e0868833611511565b5f6105ea88611223565b90508481111580156106035750670de0b6b3a764000085105b1561063a576040517f6d44d06500000000000000000000000000000000000000000000000000000000815260040160405180910390fd5b5050505050610647611641565b50505050565b5f60025f8473ffffffffffffffffffffffffffffffffffffffff1673ffffffffffffffffffffffffffffffffffffffff1681526020019081526020015f205f8373ffffffffffffffffffffffffffffffffffffffff1673ffffffffffffffffffffffffffffffffffffffff1681526020019081526020015f2054905092915050565b5f5f5f90505b60048054905081101561080d575f600482815481106106f7576106f6611d4b565b5b905f5260205f20015f9054906101000a900473ffffffffffffffffffffffffffffffffffffffff1690505f60025f8673ffffffffffffffffffffffffffffffffffffffff1673ffffffffffffffffffffffffffffffffffffffff1681526020019081526020015f205f8373ffffffffffffffffffffffffffffffffffffffff1673ffffffffffffffffffffffffffffffffffffffff1681526020019081526020015f205490505f6107a88383610d4b565b90508481866107b79190611d18565b10156107ef576040517f1bf5d35a00000000000000000000000000000000000000000000000000000000815260040160405180910390fd5b80856107fb9190611d18565b945050505080806001019150506106d5565b50919050565b7f000000000000000000000000000000000000000000000000000000000000000081565b5f61084182611223565b9050919050565b61085283836108de565b61085b81610e7a565b505050565b5f5f61086b8361164a565b8092508193505050915091565b805f81036108b2576040517fb2e8123e00000000000000000000000000000000000000000000000000000000815260040160405180910390fd5b6108ba6111df565b6108c533848461169c565b6108d1838333336112aa565b6108d9611641565b505050565b805f8103610918576040517fb2e8123e00000000000000000000000000000000000000000000000000000000815260040160405180910390fd5b825f73ffffffffffffffffffffffffffffffffffffffff1660015f8373ffffffffffffffffffffffffffffffffffffffff1673ffffffffffffffffffffffffffffffffffffffff1681526020019081526020015f205f9054906101000a900473ffffffffffffffffffffffffffffffffffffffff1673ffffffffffffffffffffffffffffffffffffffff16036109da576040517f7425fef400000000000000000000000000000000000000000000000000000000815260040160405180910390fd5b6109e26111df565b8260025f3373ffffffffffffffffffffffffffffffffffffffff1673ffffffffffffffffffffffffffffffffffffffff1681526020019081526020015f205f8673ffffffffffffffffffffffffffffffffffffffff1673ffffffffffffffffffffffffffffffffffffffff1681526020019081526020015f205f828254610a699190611d18565b92505081905550828473ffffffffffffffffffffffffffffffffffffffff163373ffffffffffffffffffffffffffffffffffffffff167f93ad675cac5b11251fded71864b27637a55ab8152d5666787d15a082fd78507e60405160405180910390a45f8473ffffffffffffffffffffffffffffffffffffffff166323b872dd3330876040518463ffffffff1660e01b8152600401610b0993929190611d78565b6020604051808303815f875af1158015610b25573d5f5f3e3d5ffd5b505050506040513d601f19601f82011682018060405250810190610b499190611de2565b905080610b82576040517fcb6225d700000000000000000000000000000000000000000000000000000000815260040160405180910390fd5b50610b8b611641565b50505050565b5f5f60015f8573ffffffffffffffffffffffffffffffffffffffff1673ffffffffffffffffffffffffffffffffffffffff1681526020019081526020015f205f9054906101000a900473ffffffffffffffffffffffffffffffffffffffff1690505f8173ffffffffffffffffffffffffffffffffffffffff1673__$1f06ac8d622ce42796cee98ba1044ce165$__632ba1c96a90916040518263ffffffff1660e01b8152600401610c429190611e2d565b60a060405180830381865af4158015610c5d573d5f5f3e3d5ffd5b505050506040513d601f19601f82011682018060405250810190610c819190611ecc565b5050509150506402540be40081610c989190611c7a565b670de0b6b3a764000085610cac9190611c7a565b610cb69190611ce8565b9250505092915050565b60606004805480602002602001604051908101604052809291908181526020018280548015610d4157602002820191905f5260205f20905b815f9054906101000a900473ffffffffffffffffffffffffffffffffffffffff1673ffffffffffffffffffffffffffffffffffffffff1681526020019060010190808311610cf8575b5050505050905090565b5f5f60015f8573ffffffffffffffffffffffffffffffffffffffff1673ffffffffffffffffffffffffffffffffffffffff1681526020019081526020015f205f9054906101000a900473ffffffffffffffffffffffffffffffffffffffff1690505f8173ffffffffffffffffffffffffffffffffffffffff1673__$1f06ac8d622ce42796cee98ba1044ce165$__632ba1c96a90916040518263ffffffff1660e01b8152600401610dfc9190611e2d565b60a060405180830381865af4158015610e17573d5f5f3e3d5ffd5b505050506040513d601f19601f82011682018060405250810190610e3b9190611ecc565b505050915050670de0b6b3a7640000846402540be40083610e5c9190611c7a565b610e669190611c7a565b610e709190611ce8565b9250505092915050565b805f8103610eb4576040517fb2e8123e00000000000000000000000000000000000000000000000000000000815260040160405180910390fd5b610ebc6111df565b610ec633836116f2565b8160035f3373ffffffffffffffffffffffffffffffffffffffff1673ffffffffffffffffffffffffffffffffffffffff1681526020019081526020015f205f828254610f129190611d18565b925050819055505f7f000000000000000000000000000000000000000000000000000000000000000073ffffffffffffffffffffffffffffffffffffffff166340c10f1933856040518363ffffffff1660e01b8152600401610f75929190611f43565b6020604051808303815f875af1158015610f91573d5f5f3e3d5ffd5b505050506040513d601f19601f82011682018060405250810190610fb59190611de2565b905080610fee576040517fd2c38ade00000000000000000000000000000000000000000000000000000000815260040160405180910390fd5b823373ffffffffffffffffffffffffffffffffffffffff167f8db25d285cfee36b751645e359b467e6607747eb227c55242e25bf4030ebdb2e60405160405180910390a35061103b611641565b5050565b61104881611057565b6110528383610878565b505050565b805f8103611091576040517fb2e8123e00000000000000000000000000000000000000000000000000000000815260040160405180910390fd5b61109c823333611511565b7f000000000000000000000000000000000000000000000000000000000000000073ffffffffffffffffffffffffffffffffffffffff166342966c68836040518263ffffffff1660e01b81526004016110f591906118ce565b5f604051808303815f87803b15801561110c575f5ffd5b505af115801561111e573d5f5f3e3d5ffd5b50505050813373ffffffffffffffffffffffffffffffffffffffff167ff412005626bd5545446b80adbebf2936ed08f5c5796808db07c640a864a1419760405160405180910390a35050565b5f5f830361119a577fffffffffffffffffffffffffffffffffffffffffffffffffffffffffffffffff90506111d9565b5f60646032846111aa9190611c7a565b6111b49190611ce8565b905083670de0b6b3a7640000826111cb9190611c7a565b6111d59190611ce8565b9150505b92915050565b60025f540361121a576040517f3ee5aeb500000000000000000000000000000000000000000000000000000000815260040160405180910390fd5b60025f81905550565b5f5f5f61122f8461164a565b915091505f8203611264577fffffffffffffffffffffffffffffffffffffffffffffffffffffffffffffffff925050506112a5565b5f60646032836112749190611c7a565b61127e9190611ce8565b905082670de0b6b3a7640000826112959190611c7a565b61129f9190611ce8565b93505050505b919050565b5f60025f8473ffffffffffffffffffffffffffffffffffffffff1673ffffffffffffffffffffffffffffffffffffffff1681526020019081526020015f205f8673ffffffffffffffffffffffffffffffffffffffff1673ffffffffffffffffffffffffffffffffffffffff1681526020019081526020015f2054905083811015611360576040517faa24680700000000000000000000000000000000000000000000000000000000815260040160405180910390fd5b8360025f8573ffffffffffffffffffffffffffffffffffffffff1673ffffffffffffffffffffffffffffffffffffffff1681526020019081526020015f205f8773ffffffffffffffffffffffffffffffffffffffff1673ffffffffffffffffffffffffffffffffffffffff1681526020019081526020015f205f8282546113e79190611f6a565b92505081905550838273ffffffffffffffffffffffffffffffffffffffff168473ffffffffffffffffffffffffffffffffffffffff167fd4ba8465e2e2f858e9b9c6fda40ac8453f934b469d57c1f7564620cddd7443de8860405161144c919061197b565b60405180910390a45f8573ffffffffffffffffffffffffffffffffffffffff1663a9059cbb84876040518363ffffffff1660e01b8152600401611490929190611f43565b6020604051808303815f875af11580156114ac573d5f5f3e3d5ffd5b505050506040513d601f19601f820116820180604052508101906114d09190611de2565b905080611509576040517fcb6225d700000000000000000000000000000000000000000000000000000000815260040160405180910390fd5b505050505050565b8260035f8473ffffffffffffffffffffffffffffffffffffffff1673ffffffffffffffffffffffffffffffffffffffff1681526020019081526020015f205f82825461155d9190611f6a565b925050819055505f7f000000000000000000000000000000000000000000000000000000000000000073ffffffffffffffffffffffffffffffffffffffff166323b872dd8330876040518463ffffffff1660e01b81526004016115c293929190611d78565b6020604051808303815f875af11580156115de573d5f5f3e3d5ffd5b505050506040513d601f19601f820116820180604052508101906116029190611de2565b90508061163b576040517fcb6225d700000000000000000000000000000000000000000000000000000000815260040160405180910390fd5b50505050565b60015f81905550565b5f5f60035f8473ffffffffffffffffffffffffffffffffffffffff1673ffffffffffffffffffffffffffffffffffffffff1681526020019081526020015f20549150611695836106cf565b9050915091565b5f6116a884848461176e565b9050670de0b6b3a76400008110156116ec576040517f0d1d46bb00000000000000000000000000000000000000000000000000000000815260040160405180910390fd5b50505050565b5f5f6116fd8461164a565b915091505f60646032836117119190611c7a565b61171b9190611ce8565b90505f838561172a9190611d18565b905081811115611766576040517f0d1d46bb00000000000000000000000000000000000000000000000000000000815260040160405180910390fd5b505050505050565b5f5f5f61177a8661164a565b915091505f82036117af577fffffffffffffffffffffffffffffffffffffffffffffffffffffffffffffffff92505050611843565b5f6117ba8686610d4b565b9050808210156117f6576040517fdaf0406b00000000000000000000000000000000000000000000000000000000815260040160405180910390fd5b5f6064603283856118079190611f6a565b6118119190611c7a565b61181b9190611ce8565b905083670de0b6b3a7640000826118329190611c7a565b61183c9190611ce8565b9450505050505b9392505050565b5f5ffd5b5f819050919050565b6118608161184e565b811461186a575f5ffd5b50565b5f8135905061187b81611857565b92915050565b5f5f604083850312156118975761189661184a565b5b5f6118a48582860161186d565b92505060206118b58582860161186d565b9150509250929050565b6118c88161184e565b82525050565b5f6020820190506118e15f8301846118bf565b92915050565b5f73ffffffffffffffffffffffffffffffffffffffff82169050919050565b5f611910826118e7565b9050919050565b61192081611906565b811461192a575f5ffd5b50565b5f8135905061193b81611917565b92915050565b5f602082840312156119565761195561184a565b5b5f6119638482850161192d565b91505092915050565b61197581611906565b82525050565b5f60208201905061198e5f83018461196c565b92915050565b5f5f5f606084860312156119ab576119aa61184a565b5b5f6119b88682870161192d565b93505060206119c98682870161192d565b92505060406119da8682870161186d565b9150509250925092565b5f5f604083850312156119fa576119f961184a565b5b5f611a078582860161192d565b9250506020611a188582860161192d565b9150509250929050565b5f819050919050565b5f611a45611a40611a3b846118e7565b611a22565b6118e7565b9050919050565b5f611a5682611a2b565b9050919050565b5f611a6782611a4c565b9050919050565b611a7781611a5d565b82525050565b5f602082019050611a905f830184611a6e565b92915050565b5f5f5f60608486031215611aad57611aac61184a565b5b5f611aba8682870161192d565b9350506020611acb8682870161186d565b9250506040611adc8682870161186d565b9150509250925092565b5f604082019050611af95f8301856118bf565b611b0660208301846118bf565b9392505050565b5f5f60408385031215611b2357611b2261184a565b5b5f611b308582860161192d565b9250506020611b418582860161186d565b9150509250929050565b5f81519050919050565b5f82825260208201905092915050565b5f819050602082019050919050565b611b7d81611906565b82525050565b5f611b8e8383611b74565b60208301905092915050565b5f602082019050919050565b5f611bb082611b4b565b611bba8185611b55565b9350611bc583611b65565b805f5b83811015611bf5578151611bdc8882611b83565b9750611be783611b9a565b925050600181019050611bc8565b5085935050505092915050565b5f6020820190508181035f830152611c1a8184611ba6565b905092915050565b5f60208284031215611c3757611c3661184a565b5b5f611c448482850161186d565b91505092915050565b7f4e487b71000000000000000000000000000000000000000000000000000000005f52601160045260245ffd5b5f611c848261184e565b9150611c8f8361184e565b9250828202611c9d8161184e565b91508282048414831517611cb457611cb3611c4d565b5b5092915050565b7f4e487b71000000000000000000000000000000000000000000000000000000005f52601260045260245ffd5b5f611cf28261184e565b9150611cfd8361184e565b925082611d0d57611d0c611cbb565b5b828204905092915050565b5f611d228261184e565b9150611d2d8361184e565b9250828201905080821115611d4557611d44611c4d565b5b92915050565b7f4e487b71000000000000000000000000000000000000000000000000000000005f52603260045260245ffd5b5f606082019050611d8b5f83018661196c565b611d98602083018561196c565b611da560408301846118bf565b949350505050565b5f8115159050919050565b611dc181611dad565b8114611dcb575f5ffd5b50565b5f81519050611ddc81611db8565b92915050565b5f60208284031215611df757611df661184a565b5b5f611e0484828501611dce565b91505092915050565b5f611e1782611a4c565b9050919050565b611e2781611e0d565b82525050565b5f602082019050611e405f830184611e1e565b92915050565b5f69ffffffffffffffffffff82169050919050565b611e6481611e46565b8114611e6e575f5ffd5b50565b5f81519050611e7f81611e5b565b92915050565b5f819050919050565b611e9781611e85565b8114611ea1575f5ffd5b50565b5f81519050611eb281611e8e565b92915050565b5f81519050611ec681611857565b92915050565b5f5f5f5f5f60a08688031215611ee557611ee461184a565b5b5f611ef288828901611e71565b9550506020611f0388828901611ea4565b9450506040611f1488828901611eb8565b9350506060611f2588828901611eb8565b9250506080611f3688828901611e71565b9150509295509295909350565b5f604082019050611f565f83018561196c565b611f6360208301846118bf565b9392505050565b5f611f748261184e565b9150611f7f8361184e565b9250828203905081811115611f9757611f96611c4d565b5b9291505056fea2646970667358221220305ae71c3dbffd08fef64a7ed91f04956571c0726110fa4839bda51c0d9bcacd64736f6c634300081c0033","linkReferences":{"src/libraries/OracleLib.sol":{"OracleLib":[{"start":4253,"length":20},{"start":4695,"length":20}]}}},"methodIdentifiers":{"burnDsc(uint256)":"f6876608","calculateHealthFactor(uint256,uint256)":"01f72884","depositCollateral(address,uint256)":"a5d5db0c","depositCollateralAndMint(address,uint256,uint256)":"7ba3ca5c","getAccountCollateralValueInUsd(address)":"545af4fe","getAccountInformation(address)":"7be564fc","getCollateralDeposited(address,address)":"4b9085af","getCollateralTokenPriceFeed(address)":"1c08adda","getCollateralTokens()":"b58eb63f","getTokenAmountFromUsd(address,uint256)":"afea2e48","getUsdValue(address,uint256)":"c660d112","getUserHealthFactor(address)":"71cbfc98","i_dsc()":"5e338bb3","liquidate(address,address,uint256)":"26c01303","mintDsc(uint256)":"c9b7c327","redeemCollateral(address,uint256)":"9acd81b3","redeemCollateralForDsc(address,uint256,uint256)":"f419ea9c"},"id":32}