{"abi":[{"type":"constructor","inputs":[],"stateMutability":"nonpayable"},{"type":"function","name":"allowance","inputs":[{"name":"owner","type":"address","internalType":"address"},{"name":"spender","type":"address","internalType":"address"}],"outputs":[{"name":"","type":"uint256","internalType":"uint256"}],"stateMutability":"view"},{"type":"function","name":"approve","inputs":[{"name":"spender","type":"address","internalType":"address"},{"name":"value","type":"uint256","internalType":"uint256"}],"outputs":[{"name":"","type":"bool","internalType":"bool"}],"stateMutability":"nonpayable"},{"type":"function","name":"balanceOf","inputs":[{"name":"account","type":"address","internalType":"address"}],"outputs":[{"name":"","type":"uint256","internalType":"uint256"}],"stateMutability":"view"},{"type":"function","name":"burn","inputs":[{"name":"account","type":"address","internalType":"address"},{"name":"amount","type":"uint256","internalType":"uint256"}],"outputs":[],"stateMutability":"nonpayable"},{"type":"function","name":"decimals","inputs":[],"outputs":[{"name":"","type":"uint8","internalType":"uint8"}],"stateMutability":"view"},{"type":"function","name":"mint","inputs":[{"name":"account","type":"address","internalType":"address"},{"name":"amount","type":"uint256","internalType":"uint256"}],"outputs":[],"stateMutability":"nonpayable"},{"type":"function","name":"name","inputs":[],"outputs":[{"name":"","type":"string","internalType":"string"}],"stateMutability":"view"},{"type":"function","name":"setShouldFailTransfer","inputs":[{"name":"_shouldFail","type":"bool","internalType":"bool"}],"outputs":[],"stateMutability":"nonpayable"},{"type":"function","name":"setShouldFailTransferFrom","inputs":[{"name":"_shouldFail","type":"bool","internalType":"bool"}],"outputs":[],"stateMutability":"nonpayable"},{"type":"function","name":"shouldFailTransfer","inputs":[],"outputs":[{"name":"","type":"bool","internalType":"bool"}],"stateMutability":"view"},{"type":"function","name":"shouldFailTransferFrom","inputs":[],"outputs":[{"name":"","type":"bool","internalType":"bool"}],"stateMutability":"view"},{"type":"function","name":"symbol","inputs":[],"outputs":[{"name":"","type":"string","internalType":"string"}],"stateMutability":"view"},{"type":"function","name":"totalSupply","inputs":[],"outputs":[{"name":"","type":"uint256","internalType":"uint256"}],"stateMutability":"view"},{"type":"function","name":"transfer","inputs":[{"name":"to","type":"address","internalType":"address"},{"name":"amount","type":"uint256","internalType":"uint256"}],"outputs":[{"name":"","type":"bool","internalType":"bool"}],"stateMutability":"nonpayable"},{"type":"function","name":"transferFrom","inputs":[{"name":"from","type":"address","internalType":"address"},{"name":"to","type":"address","internalType":"address"},{"name":"amount","type":"uint256","internalType":"uint256"}],"outputs":[{"name":"","type":"bool","internalType":"bool"}],"stateMutability":"nonpayable"},{"type":"event","name":"Approval","inputs":[{"name":"owner","type":"address","indexed":true,"internalType":"address"},{"name":"spender","type":"address","indexed":true,"internalType":"address"},{"name":"value","type":"uint256","indexed":false,"internalType":"uint256"}],"anonymous":false},{"type":"event","name":"Transfer","inputs":[{"name":"from","type":"address","indexed":true,"internalType":"address"},{"name":"to","type":"address","indexed":true,"internalType":"address"},{"name":"value","type":"uint256","indexed":false,"internalType":"uint256"}],"anonymous":false},{"type":"error","name":"ERC20InsufficientAllowance","inputs":[{"name":"spender","type":"address","internalType":"address"},{"name":"allowance","type":"uint256","internalType":"uint256"},{"name":"needed","type":"uint256","internalType":"uint256"}]},{"type":"error","name":"ERC20InsufficientBalance","inputs":[{"name":"sender","type":"address","internalType":"address"},{"name":"balance","type":"uint256","internalType":"uint256"},{"name":"needed","type":"uint256","internalType":"uint256"}]},{"type":"error","name":"ERC20InvalidApprover","inputs":[{"name":"approver","type":"address","internalType":"address"}]},{"type":"error","name":"ERC20InvalidReceiver","inputs":[{"name":"receiver","type":"address","internalType":"address"}]},{"type":"error","name":"ERC20InvalidSender","inputs":[{"name":"sender","type":"address","internalType":"address"}]},{"type":"error","name":"ERC20InvalidSpender","inputs":[{"name":"spender","type":"address","internalType":"address"}]}],"bytecode":{"object":"0x608060405234801561000f575f5ffd5b506040518060400160405280600981526020017f45524332304d6f636b00000000000000000000000000000000000000000000008152506040518060400160405280600481526020017f4532304d00000000000000000000000000000000000000000000000000000000815250816003908161008b91906102e0565b50806004908161009b91906102e0565b5050506103af565b5f81519050919050565b7f4e487b71000000000000000000000000000000000000000000000000000000005f52604160045260245ffd5b7f4e487b71000000000000000000000000000000000000000000000000000000005f52602260045260245ffd5b5f600282049050600182168061011e57607f821691505b602082108103610131576101306100da565b5b50919050565b5f819050815f5260205f209050919050565b5f6020601f8301049050919050565b5f82821b905092915050565b5f600883026101937fffffffffffffffffffffffffffffffffffffffffffffffffffffffffffffffff82610158565b61019d8683610158565b95508019841693508086168417925050509392505050565b5f819050919050565b5f819050919050565b5f6101e16101dc6101d7846101b5565b6101be565b6101b5565b9050919050565b5f819050919050565b6101fa836101c7565b61020e610206826101e8565b848454610164565b825550505050565b5f5f905090565b610225610216565b6102308184846101f1565b505050565b5b81811015610253576102485f8261021d565b600181019050610236565b5050565b601f8211156102985761026981610137565b61027284610149565b81016020851015610281578190505b61029561028d85610149565b830182610235565b50505b505050565b5f82821c905092915050565b5f6102b85f198460080261029d565b1980831691505092915050565b5f6102d083836102a9565b9150826002028217905092915050565b6102e9826100a3565b67ffffffffffffffff811115610302576103016100ad565b5b61030c8254610107565b610317828285610257565b5f60209050601f831160018114610348575f8415610336578287015190505b61034085826102c5565b8655506103a7565b601f19841661035686610137565b5f5b8281101561037d57848901518255600182019150602085019450602081019050610358565b8683101561039a5784890151610396601f8916826102a9565b8355505b6001600288020188555050505b505050505050565b611120806103bc5f395ff3fe608060405234801561000f575f5ffd5b50600436106100f3575f3560e01c806340c10f19116100955780639dc29fac116100645780639dc29fac14610271578063a9059cbb1461028d578063d564aa25146102bd578063dd62ed3e146102db576100f3565b806340c10f19146101eb57806370a082311461020757806382be56bb1461023757806395d89b4114610253576100f3565b806323b872dd116100d157806323b872dd14610163578063313ce56714610193578063382021c0146101b157806340b35d9f146101cf576100f3565b806306fdde03146100f7578063095ea7b31461011557806318160ddd14610145575b5f5ffd5b6100ff61030b565b60405161010c9190610d44565b60405180910390f35b61012f600480360381019061012a9190610df5565b61039b565b60405161013c9190610e4d565b60405180910390f35b61014d6103bd565b60405161015a9190610e75565b60405180910390f35b61017d60048036038101906101789190610e8e565b6103c6565b60405161018a9190610e4d565b60405180910390f35b61019b6103f9565b6040516101a89190610ef9565b60405180910390f35b6101b9610401565b6040516101c69190610e4d565b60405180910390f35b6101e960048036038101906101e49190610f3c565b610413565b005b61020560048036038101906102009190610df5565b610430565b005b610221600480360381019061021c9190610f67565b61043e565b60405161022e9190610e75565b60405180910390f35b610251600480360381019061024c9190610f3c565b610483565b005b61025b61049f565b6040516102689190610d44565b60405180910390f35b61028b60048036038101906102869190610df5565b61052f565b005b6102a760048036038101906102a29190610df5565b61053d565b6040516102b49190610e4d565b60405180910390f35b6102c561056d565b6040516102d29190610e4d565b60405180910390f35b6102f560048036038101906102f09190610f92565b610580565b6040516103029190610e75565b60405180910390f35b60606003805461031a90610ffd565b80601f016020809104026020016040519081016040528092919081815260200182805461034690610ffd565b80156103915780601f1061036857610100808354040283529160200191610391565b820191905f5260205f20905b81548152906001019060200180831161037457829003601f168201915b5050505050905090565b5f5f6103a5610602565b90506103b2818585610609565b600191505092915050565b5f600254905090565b5f600560019054906101000a900460ff16156103e4575f90506103f2565b6103ef84848461061b565b90505b9392505050565b5f6012905090565b60055f9054906101000a900460ff1681565b80600560016101000a81548160ff02191690831515021790555050565b61043a8282610649565b5050565b5f5f5f8373ffffffffffffffffffffffffffffffffffffffff1673ffffffffffffffffffffffffffffffffffffffff1681526020019081526020015f20549050919050565b8060055f6101000a81548160ff02191690831515021790555050565b6060600480546104ae90610ffd565b80601f01602080910402602001604051908101604052809291908181526020018280546104da90610ffd565b80156105255780601f106104fc57610100808354040283529160200191610525565b820191905f5260205f20905b81548152906001019060200180831161050857829003601f168201915b5050505050905090565b61053982826106c8565b5050565b5f60055f9054906101000a900460ff161561055a575f9050610567565b6105648383610747565b90505b92915050565b600560019054906101000a900460ff1681565b5f60015f8473ffffffffffffffffffffffffffffffffffffffff1673ffffffffffffffffffffffffffffffffffffffff1681526020019081526020015f205f8373ffffffffffffffffffffffffffffffffffffffff1673ffffffffffffffffffffffffffffffffffffffff1681526020019081526020015f2054905092915050565b5f33905090565b6106168383836001610769565b505050565b5f5f610625610602565b9050610632858285610938565b61063d8585856109cb565b60019150509392505050565b5f73ffffffffffffffffffffffffffffffffffffffff168273ffffffffffffffffffffffffffffffffffffffff16036106b9575f6040517fec442f050000000000000000000000000000000000000000000000000000000081526004016106b0919061103c565b60405180910390fd5b6106c45f8383610abb565b5050565b5f73ffffffffffffffffffffffffffffffffffffffff168273ffffffffffffffffffffffffffffffffffffffff1603610738575f6040517f96c6fd1e00000000000000000000000000000000000000000000000000000000815260040161072f919061103c565b60405180910390fd5b610743825f83610abb565b5050565b5f5f610751610602565b905061075e8185856109cb565b600191505092915050565b5f73ffffffffffffffffffffffffffffffffffffffff168473ffffffffffffffffffffffffffffffffffffffff16036107d9575f6040517fe602df050000000000000000000000000000000000000000000000000000000081526004016107d0919061103c565b60405180910390fd5b5f73ffffffffffffffffffffffffffffffffffffffff168373ffffffffffffffffffffffffffffffffffffffff1603610849575f6040517f94280d62000000000000000000000000000000000000000000000000000000008152600401610840919061103c565b60405180910390fd5b8160015f8673ffffffffffffffffffffffffffffffffffffffff1673ffffffffffffffffffffffffffffffffffffffff1681526020019081526020015f205f8573ffffffffffffffffffffffffffffffffffffffff1673ffffffffffffffffffffffffffffffffffffffff1681526020019081526020015f20819055508015610932578273ffffffffffffffffffffffffffffffffffffffff168473ffffffffffffffffffffffffffffffffffffffff167f8c5be1e5ebec7d5bd14f71427d1e84f3dd0314c0f7b2291e5b200ac8c7c3b925846040516109299190610e75565b60405180910390a35b50505050565b5f6109438484610580565b90507fffffffffffffffffffffffffffffffffffffffffffffffffffffffffffffffff8110156109c557818110156109b6578281836040517ffb8f41b20000000000000000000000000000000000000000000000000000000081526004016109ad93929190611055565b60405180910390fd5b6109c484848484035f610769565b5b50505050565b5f73ffffffffffffffffffffffffffffffffffffffff168373ffffffffffffffffffffffffffffffffffffffff1603610a3b575f6040517f96c6fd1e000000000000000000000000000000000000000000000000000000008152600401610a32919061103c565b60405180910390fd5b5f73ffffffffffffffffffffffffffffffffffffffff168273ffffffffffffffffffffffffffffffffffffffff1603610aab575f6040517fec442f05000000000000000000000000000000000000000000000000000000008152600401610aa2919061103c565b60405180910390fd5b610ab6838383610abb565b505050565b5f73ffffffffffffffffffffffffffffffffffffffff168373ffffffffffffffffffffffffffffffffffffffff1603610b0b578060025f828254610aff91906110b7565b92505081905550610bd9565b5f5f5f8573ffffffffffffffffffffffffffffffffffffffff1673ffffffffffffffffffffffffffffffffffffffff1681526020019081526020015f2054905081811015610b94578381836040517fe450d38c000000000000000000000000000000000000000000000000000000008152600401610b8b93929190611055565b60405180910390fd5b8181035f5f8673ffffffffffffffffffffffffffffffffffffffff1673ffffffffffffffffffffffffffffffffffffffff1681526020019081526020015f2081905550505b5f73ffffffffffffffffffffffffffffffffffffffff168273ffffffffffffffffffffffffffffffffffffffff1603610c20578060025f8282540392505081905550610c6a565b805f5f8473ffffffffffffffffffffffffffffffffffffffff1673ffffffffffffffffffffffffffffffffffffffff1681526020019081526020015f205f82825401925050819055505b8173ffffffffffffffffffffffffffffffffffffffff168373ffffffffffffffffffffffffffffffffffffffff167fddf252ad1be2c89b69c2b068fc378daa952ba7f163c4a11628f55a4df523b3ef83604051610cc79190610e75565b60405180910390a3505050565b5f81519050919050565b5f82825260208201905092915050565b8281835e5f83830152505050565b5f601f19601f8301169050919050565b5f610d1682610cd4565b610d208185610cde565b9350610d30818560208601610cee565b610d3981610cfc565b840191505092915050565b5f6020820190508181035f830152610d5c8184610d0c565b905092915050565b5f5ffd5b5f73ffffffffffffffffffffffffffffffffffffffff82169050919050565b5f610d9182610d68565b9050919050565b610da181610d87565b8114610dab575f5ffd5b50565b5f81359050610dbc81610d98565b92915050565b5f819050919050565b610dd481610dc2565b8114610dde575f5ffd5b50565b5f81359050610def81610dcb565b92915050565b5f5f60408385031215610e0b57610e0a610d64565b5b5f610e1885828601610dae565b9250506020610e2985828601610de1565b9150509250929050565b5f8115159050919050565b610e4781610e33565b82525050565b5f602082019050610e605f830184610e3e565b92915050565b610e6f81610dc2565b82525050565b5f602082019050610e885f830184610e66565b92915050565b5f5f5f60608486031215610ea557610ea4610d64565b5b5f610eb286828701610dae565b9350506020610ec386828701610dae565b9250506040610ed486828701610de1565b9150509250925092565b5f60ff82169050919050565b610ef381610ede565b82525050565b5f602082019050610f0c5f830184610eea565b92915050565b610f1b81610e33565b8114610f25575f5ffd5b50565b5f81359050610f3681610f12565b92915050565b5f60208284031215610f5157610f50610d64565b5b5f610f5e84828501610f28565b91505092915050565b5f60208284031215610f7c57610f7b610d64565b5b5f610f8984828501610dae565b91505092915050565b5f5f60408385031215610fa857610fa7610d64565b5b5f610fb585828601610dae565b9250506020610fc685828601610dae565b9150509250929050565b7f4e487b71000000000000000000000000000000000000000000000000000000005f52602260045260245ffd5b5f600282049050600182168061101457607f821691505b60208210810361102757611026610fd0565b5b50919050565b61103681610d87565b82525050565b5f60208201905061104f5f83018461102d565b92915050565b5f6060820190506110685f83018661102d565b6110756020830185610e66565b6110826040830184610e66565b949350505050565b7f4e487b71000000000000000000000000000000000000000000000000000000005f52601160045260245ffd5b5f6110c182610dc2565b91506110cc83610dc2565b92508282019050808211156110e4576110e361108a565b5b9291505056fea26469706673582212205b6567fe6703a7c94b33550dc23c3b1674f380e3647b5886bad8b8580dd902c964736f6c634300081c0033","linkReferences":{}},"methodIdentifiers":{"allowance(address,address)":"dd62ed3e","approve(address,uint256)":"095ea7b3","balanceOf(address)":"70a08231","burn(address,uint256)":"9dc29fac","decimals()":"313ce567","mint(address,uint256)":"40c10f19","name()":"06fdde03","setShouldFailTransfer(bool)":"82be56bb","setShouldFailTransferFrom(bool)":"40b35d9f","shouldFailTransfer()":"382021c0","shouldFailTransferFrom()":"d564aa25","symbol()":"95d89b41","totalSupply()":"18160ddd","transfer(address,uint256)":"a9059cbb","transferFrom(address,address,uint256)":"23b872dd"},"id":40}