{"abi":[{"type":"function","name":"TIMEOUT","inputs":[],"outputs":[{"name":"","type":"uint256","internalType":"uint256"}],"stateMutability":"view"},{"type":"function","name":"getTimeout","inputs":[{"name":"","type":"AggregatorV3Interface","internalType":"contract AggregatorV3Interface"}],"outputs":[{"name":"","type":"uint256","internalType":"uint256"}],"stateMutability":"pure"},{"type":"function","name":"staleCheckLatestRoundData","inputs":[{"name":"chainlinkFeed","type":"AggregatorV3Interface","internalType":"contract AggregatorV3Interface"}],"outputs":[{"name":"","type":"uint80","internalType":"uint80"},{"name":"","type":"int256","internalType":"int256"},{"name":"","type":"uint256","internalType":"uint256"},{"name":"","type":"uint256","internalType":"uint256"},{"name":"","type":"uint80","internalType":"uint80"}],"stateMutability":"view"},{"type":"error","name":"OracleLib__StalePrice","inputs":[]}],"bytecode":{"object":"0x61050a61004d600b8282823980515f1a6073146041577f4e487b71000000000000000000000000000000000000000000000000000000005f525f60045260245ffd5b305f52607381538281f3fe730000000000000000000000000000000000000000301460806040526004361061004a575f3560e01c80632ba1c96a1461004e57806347096f8114610082578063f56f48f2146100b2575b5f5ffd5b61006860048036038101906100639190610296565b6100d0565b604051610079959493929190610315565b60405180910390f35b61009c60048036038101906100979190610296565b610216565b6040516100a99190610366565b60405180910390f35b6100ba610221565b6040516100c79190610366565b60405180910390f35b5f5f5f5f5f5f5f5f5f5f8a73ffffffffffffffffffffffffffffffffffffffff1663feaf968c6040518163ffffffff1660e01b815260040160a060405180830381865afa158015610123573d5f5f3e3d5ffd5b505050506040513d601f19601f8201168201806040525081019061014791906103fd565b945094509450945094505f82148061017657508469ffffffffffffffffffff168169ffffffffffffffffffff16105b156101ad576040517fc4a1093a00000000000000000000000000000000000000000000000000000000815260040160405180910390fd5b5f82426101ba91906104a1565b9050612a308111156101f8576040517fc4a1093a00000000000000000000000000000000000000000000000000000000815260040160405180910390fd5b85858585859a509a509a509a509a5050505050505091939590929450565b5f612a309050919050565b612a3081565b5f5ffd5b5f73ffffffffffffffffffffffffffffffffffffffff82169050919050565b5f6102548261022b565b9050919050565b5f6102658261024a565b9050919050565b6102758161025b565b811461027f575f5ffd5b50565b5f813590506102908161026c565b92915050565b5f602082840312156102ab576102aa610227565b5b5f6102b884828501610282565b91505092915050565b5f69ffffffffffffffffffff82169050919050565b6102df816102c1565b82525050565b5f819050919050565b6102f7816102e5565b82525050565b5f819050919050565b61030f816102fd565b82525050565b5f60a0820190506103285f8301886102d6565b61033560208301876102ee565b6103426040830186610306565b61034f6060830185610306565b61035c60808301846102d6565b9695505050505050565b5f6020820190506103795f830184610306565b92915050565b610388816102c1565b8114610392575f5ffd5b50565b5f815190506103a38161037f565b92915050565b6103b2816102e5565b81146103bc575f5ffd5b50565b5f815190506103cd816103a9565b92915050565b6103dc816102fd565b81146103e6575f5ffd5b50565b5f815190506103f7816103d3565b92915050565b5f5f5f5f5f60a0868803121561041657610415610227565b5b5f61042388828901610395565b9550506020610434888289016103bf565b9450506040610445888289016103e9565b9350506060610456888289016103e9565b925050608061046788828901610395565b9150509295509295909350565b7f4e487b71000000000000000000000000000000000000000000000000000000005f52601160045260245ffd5b5f6104ab826102fd565b91506104b6836102fd565b92508282039050818111156104ce576104cd610474565b5b9291505056fea2646970667358221220c43d6bdd929e65e9c38373a41dec874050525bbf7a9a7207dea7cc43d0d04b3d64736f6c634300081c0033","linkReferences":{}},"methodIdentifiers":{"TIMEOUT()":"f56f48f2","getTimeout(AggregatorV3Interface)":"47096f81","staleCheckLatestRoundData(AggregatorV3Interface)":"2ba1c96a"},"id":31}